{
  "_format": "hh-sol-artifact-1",
  "contractName": "Bettingcopy",
  "sourceName": "contracts/Bettingcopy.sol",
  "abi": [
    {
      "inputs": [],
      "stateMutability": "nonpayable",
      "type": "constructor"
    },
    {
      "anonymous": false,
      "inputs": [
        {
          "indexed": false,
          "internalType": "address",
          "name": "previousAdmin",
          "type": "address"
        },
        {
          "indexed": false,
          "internalType": "address",
          "name": "newAdmin",
          "type": "address"
        }
      ],
      "name": "AdminChanged",
      "type": "event"
    },
    {
      "anonymous": false,
      "inputs": [
        {
          "indexed": true,
          "internalType": "address",
          "name": "beacon",
          "type": "address"
        }
      ],
      "name": "BeaconUpgraded",
      "type": "event"
    },
    {
      "anonymous": false,
      "inputs": [
        {
          "indexed": false,
          "internalType": "uint8",
          "name": "version",
          "type": "uint8"
        }
      ],
      "name": "Initialized",
      "type": "event"
    },
    {
      "anonymous": false,
      "inputs": [
        {
          "indexed": true,
          "internalType": "address",
          "name": "previousOwner",
          "type": "address"
        },
        {
          "indexed": true,
          "internalType": "address",
          "name": "newOwner",
          "type": "address"
        }
      ],
      "name": "OwnershipTransferred",
      "type": "event"
    },
    {
      "anonymous": false,
      "inputs": [
        {
          "indexed": true,
          "internalType": "address",
          "name": "implementation",
          "type": "address"
        }
      ],
      "name": "Upgraded",
      "type": "event"
    },
    {
      "inputs": [
        {
          "internalType": "bool",
          "name": "isApproved",
          "type": "bool"
        }
      ],
      "name": "approveWinner",
      "outputs": [],
      "stateMutability": "nonpayable",
      "type": "function"
    },
    {
      "inputs": [],
      "name": "checkApproval",
      "outputs": [],
      "stateMutability": "nonpayable",
      "type": "function"
    },
    {
      "inputs": [
        {
          "internalType": "address payable",
          "name": "player",
          "type": "address"
        }
      ],
      "name": "checkPlayerExists",
      "outputs": [
        {
          "internalType": "bool",
          "name": "",
          "type": "bool"
        }
      ],
      "stateMutability": "view",
      "type": "function"
    },
    {
      "inputs": [],
      "name": "contractState",
      "outputs": [
        {
          "internalType": "string",
          "name": "",
          "type": "string"
        }
      ],
      "stateMutability": "view",
      "type": "function"
    },
    {
      "inputs": [
        {
          "internalType": "uint256",
          "name": "_winner",
          "type": "uint256"
        }
      ],
      "name": "endEventAndContState",
      "outputs": [],
      "stateMutability": "nonpayable",
      "type": "function"
    },
    {
      "inputs": [],
      "name": "endTime",
      "outputs": [
        {
          "internalType": "uint256",
          "name": "",
          "type": "uint256"
        }
      ],
      "stateMutability": "view",
      "type": "function"
    },
    {
      "inputs": [
        {
          "internalType": "string",
          "name": "team1",
          "type": "string"
        },
        {
          "internalType": "string",
          "name": "team2",
          "type": "string"
        }
      ],
      "name": "initialize",
      "outputs": [],
      "stateMutability": "nonpayable",
      "type": "function"
    },
    {
      "inputs": [],
      "name": "matchObj",
      "outputs": [
        {
          "internalType": "uint256",
          "name": "teamOneId",
          "type": "uint256"
        },
        {
          "internalType": "uint256",
          "name": "teamTwoId",
          "type": "uint256"
        },
        {
          "internalType": "string",
          "name": "matchState",
          "type": "string"
        }
      ],
      "stateMutability": "view",
      "type": "function"
    },
    {
      "inputs": [],
      "name": "minimumBet",
      "outputs": [
        {
          "internalType": "uint256",
          "name": "",
          "type": "uint256"
        }
      ],
      "stateMutability": "view",
      "type": "function"
    },
    {
      "inputs": [],
      "name": "owner",
      "outputs": [
        {
          "internalType": "address",
          "name": "",
          "type": "address"
        }
      ],
      "stateMutability": "view",
      "type": "function"
    },
    {
      "inputs": [],
      "name": "ownerAddr",
      "outputs": [
        {
          "internalType": "address payable",
          "name": "",
          "type": "address"
        }
      ],
      "stateMutability": "view",
      "type": "function"
    },
    {
      "inputs": [
        {
          "internalType": "uint256",
          "name": "teamid",
          "type": "uint256"
        }
      ],
      "name": "placeBet",
      "outputs": [],
      "stateMutability": "payable",
      "type": "function"
    },
    {
      "inputs": [
        {
          "internalType": "uint256",
          "name": "",
          "type": "uint256"
        }
      ],
      "name": "playerArr",
      "outputs": [
        {
          "internalType": "uint256",
          "name": "amountBet",
          "type": "uint256"
        },
        {
          "internalType": "uint256",
          "name": "teamSelected",
          "type": "uint256"
        },
        {
          "internalType": "uint256",
          "name": "betPlaced",
          "type": "uint256"
        },
        {
          "internalType": "address",
          "name": "addr",
          "type": "address"
        },
        {
          "internalType": "uint256",
          "name": "id",
          "type": "uint256"
        }
      ],
      "stateMutability": "view",
      "type": "function"
    },
    {
      "inputs": [
        {
          "internalType": "address",
          "name": "",
          "type": "address"
        }
      ],
      "name": "playerInfo",
      "outputs": [
        {
          "internalType": "uint256",
          "name": "amountBet",
          "type": "uint256"
        },
        {
          "internalType": "uint256",
          "name": "teamSelected",
          "type": "uint256"
        },
        {
          "internalType": "uint256",
          "name": "betPlaced",
          "type": "uint256"
        },
        {
          "internalType": "address",
          "name": "addr",
          "type": "address"
        },
        {
          "internalType": "uint256",
          "name": "id",
          "type": "uint256"
        }
      ],
      "stateMutability": "view",
      "type": "function"
    },
    {
      "inputs": [],
      "name": "playerOneApproval",
      "outputs": [
        {
          "internalType": "bool",
          "name": "",
          "type": "bool"
        }
      ],
      "stateMutability": "view",
      "type": "function"
    },
    {
      "inputs": [],
      "name": "playerTwoApproval",
      "outputs": [
        {
          "internalType": "bool",
          "name": "",
          "type": "bool"
        }
      ],
      "stateMutability": "view",
      "type": "function"
    },
    {
      "inputs": [
        {
          "internalType": "uint256",
          "name": "",
          "type": "uint256"
        }
      ],
      "name": "players",
      "outputs": [
        {
          "internalType": "address payable",
          "name": "",
          "type": "address"
        }
      ],
      "stateMutability": "view",
      "type": "function"
    },
    {
      "inputs": [],
      "name": "proxiableUUID",
      "outputs": [
        {
          "internalType": "bytes32",
          "name": "",
          "type": "bytes32"
        }
      ],
      "stateMutability": "view",
      "type": "function"
    },
    {
      "inputs": [],
      "name": "renounceOwnership",
      "outputs": [],
      "stateMutability": "nonpayable",
      "type": "function"
    },
    {
      "inputs": [],
      "name": "startEventAndContState",
      "outputs": [],
      "stateMutability": "nonpayable",
      "type": "function"
    },
    {
      "inputs": [],
      "name": "startTime",
      "outputs": [
        {
          "internalType": "uint256",
          "name": "",
          "type": "uint256"
        }
      ],
      "stateMutability": "view",
      "type": "function"
    },
    {
      "inputs": [
        {
          "internalType": "uint256",
          "name": "",
          "type": "uint256"
        }
      ],
      "name": "teamMap",
      "outputs": [
        {
          "internalType": "string",
          "name": "country",
          "type": "string"
        }
      ],
      "stateMutability": "view",
      "type": "function"
    },
    {
      "inputs": [],
      "name": "teamOneObj",
      "outputs": [
        {
          "internalType": "string",
          "name": "country",
          "type": "string"
        }
      ],
      "stateMutability": "view",
      "type": "function"
    },
    {
      "inputs": [],
      "name": "teamTwoObj",
      "outputs": [
        {
          "internalType": "string",
          "name": "country",
          "type": "string"
        }
      ],
      "stateMutability": "view",
      "type": "function"
    },
    {
      "inputs": [],
      "name": "terminateContract",
      "outputs": [],
      "stateMutability": "nonpayable",
      "type": "function"
    },
    {
      "inputs": [
        {
          "internalType": "address",
          "name": "newOwner",
          "type": "address"
        }
      ],
      "name": "transferOwnership",
      "outputs": [],
      "stateMutability": "nonpayable",
      "type": "function"
    },
    {
      "inputs": [
        {
          "internalType": "address",
          "name": "newImplementation",
          "type": "address"
        }
      ],
      "name": "upgradeTo",
      "outputs": [],
      "stateMutability": "nonpayable",
      "type": "function"
    },
    {
      "inputs": [
        {
          "internalType": "address",
          "name": "newImplementation",
          "type": "address"
        },
        {
          "internalType": "bytes",
          "name": "data",
          "type": "bytes"
        }
      ],
      "name": "upgradeToAndCall",
      "outputs": [],
      "stateMutability": "payable",
      "type": "function"
    },
    {
      "inputs": [],
      "name": "winner",
      "outputs": [
        {
          "internalType": "uint256",
          "name": "",
          "type": "uint256"
        }
      ],
      "stateMutability": "view",
      "type": "function"
    },
    {
      "inputs": [],
      "name": "winnerAddr",
      "outputs": [
        {
          "internalType": "address",
          "name": "",
          "type": "address"
        }
      ],
      "stateMutability": "view",
      "type": "function"
    }
  ],
  "bytecode": "0x60a06040523073ffffffffffffffffffffffffffffffffffffffff1660809073ffffffffffffffffffffffffffffffffffffffff168152503480156200004457600080fd5b50620000556200005b60201b60201c565b62000206565b600060019054906101000a900460ff1615620000ae576040517f08c379a0000000000000000000000000000000000000000000000000000000008152600401620000a590620001a9565b60405180910390fd5b60ff801660008054906101000a900460ff1660ff161015620001205760ff6000806101000a81548160ff021916908360ff1602179055507f7f26b83ff96e1f2b6a682f133852f6798a09c465da95921460cefb384740249860ff604051620001179190620001e9565b60405180910390a15b565b600082825260208201905092915050565b7f496e697469616c697a61626c653a20636f6e747261637420697320696e69746960008201527f616c697a696e6700000000000000000000000000000000000000000000000000602082015250565b60006200019160278362000122565b91506200019e8262000133565b604082019050919050565b60006020820190508181036000830152620001c48162000182565b9050919050565b600060ff82169050919050565b620001e381620001cb565b82525050565b6000602082019050620002006000830184620001d8565b92915050565b608051613bad6200023e600039600081816111f801528181611286015281816117830152818161181101526118c10152613bad6000f3fe6080604052600436106101cd5760003560e01c80636c03d06b116100f75780639c675eaa11610095578063e7b59e4611610064578063e7b59e46146105f8578063f2fde38b14610635578063f71d96cb1461065e578063fb174ffb1461069b576101cd565b80639c675eaa1461054c578063c38a8afd14610577578063ceb759f7146105a2578063dfbf53ae146105cd576101cd565b806383fccff3116100d157806383fccff31461048c57806385209ee0146104cd5780638a5a6d40146104f85780638da5cb5b14610521576101cd565b80636c03d06b14610421578063715018a61461044a57806378e9792514610461576101cd565b80633197cbb61161016f5780634cd88b761161013e5780634cd88b76146103865780634f1ef286146103af57806352d1902d146103cb57806366747331146103f6576101cd565b80633197cbb6146102b45780633659cfe6146102df5780634081d916146103085780634b11469114610345576101cd565b806317d778a4116101ab57806317d778a4146102305780631d2e519114610247578063222b3ff5146102725780632fd949ca1461029d576101cd565b806302a304c5146101d2578063103f099e146101fd57806310fe7c4814610214575b600080fd5b3480156101de57600080fd5b506101e76106c8565b6040516101f49190612716565b60405180910390f35b34801561020957600080fd5b5061021261075c565b005b61022e60048036038101906102299190612782565b61083a565b005b34801561023c57600080fd5b50610245610d24565b005b34801561025357600080fd5b5061025c6110e0565b60405161026991906127ca565b60405180910390f35b34801561027e57600080fd5b506102876110f3565b6040516102949190612826565b60405180910390f35b3480156102a957600080fd5b506102b2611119565b005b3480156102c057600080fd5b506102c96111f0565b6040516102d69190612850565b60405180910390f35b3480156102eb57600080fd5b5061030660048036038101906103019190612897565b6111f6565b005b34801561031457600080fd5b5061032f600480360381019061032a9190612902565b61137e565b60405161033c91906127ca565b60405180910390f35b34801561035157600080fd5b5061036c60048036038101906103679190612897565b61142c565b60405161037d95949392919061292f565b60405180910390f35b34801561039257600080fd5b506103ad60048036038101906103a89190612ab7565b611482565b005b6103c960048036038101906103c49190612bd0565b611781565b005b3480156103d757600080fd5b506103e06118bd565b6040516103ed9190612c45565b60405180910390f35b34801561040257600080fd5b5061040b611976565b60405161041891906127ca565b60405180910390f35b34801561042d57600080fd5b5061044860048036038101906104439190612782565b611989565b005b34801561045657600080fd5b5061045f611a6f565b005b34801561046d57600080fd5b50610476611a83565b6040516104839190612850565b60405180910390f35b34801561049857600080fd5b506104b360048036038101906104ae9190612782565b611a89565b6040516104c495949392919061292f565b60405180910390f35b3480156104d957600080fd5b506104e2611aef565b6040516104ef9190612716565b60405180910390f35b34801561050457600080fd5b5061051f600480360381019061051a9190612c8c565b611b7d565b005b34801561052d57600080fd5b50610536611ca6565b6040516105439190612826565b60405180910390f35b34801561055857600080fd5b50610561611cd0565b60405161056e9190612cc8565b60405180910390f35b34801561058357600080fd5b5061058c611cf6565b6040516105999190612850565b60405180910390f35b3480156105ae57600080fd5b506105b7611cfc565b6040516105c49190612716565b60405180910390f35b3480156105d957600080fd5b506105e2611d90565b6040516105ef9190612850565b60405180910390f35b34801561060457600080fd5b5061061f600480360381019061061a9190612782565b611d96565b60405161062c9190612716565b60405180910390f35b34801561064157600080fd5b5061065c60048036038101906106579190612897565b611e3c565b005b34801561066a57600080fd5b5061068560048036038101906106809190612782565b611ebf565b6040516106929190612cc8565b60405180910390f35b3480156106a757600080fd5b506106b0611efe565b6040516106bf93929190612ce3565b60405180910390f35b60cf8060000180546106d990612d50565b80601f016020809104026020016040519081016040528092919081815260200182805461070590612d50565b80156107525780601f1061072757610100808354040283529160200191610752565b820191906000526020600020905b81548152906001019060200180831161073557829003601f168201915b5050505050905081565b60c960009054906101000a900473ffffffffffffffffffffffffffffffffffffffff1673ffffffffffffffffffffffffffffffffffffffff163373ffffffffffffffffffffffffffffffffffffffff16146107ec576040517f08c379a00000000000000000000000000000000000000000000000000000000081526004016107e390612dcd565b60405180910390fd5b6040518060400160405280600981526020017f454646454354495645000000000000000000000000000000000000000000000081525060d890816108309190612f99565b504260d481905550565b6108433361137e565b1561084d57600080fd5b60405160200161085c906130c2565b6040516020818303038152906040528051906020012060d8604051602001610884919061315a565b60405160208183030381529060405280519060200120036108a457600080fd5b600060ca5403610acb573460ca819055503460cc60003373ffffffffffffffffffffffffffffffffffffffff1673ffffffffffffffffffffffffffffffffffffffff168152602001908152602001600020600001819055508060cc60003373ffffffffffffffffffffffffffffffffffffffff1673ffffffffffffffffffffffffffffffffffffffff168152602001908152602001600020600101819055503360cc60003373ffffffffffffffffffffffffffffffffffffffff1673ffffffffffffffffffffffffffffffffffffffff16815260200190815260200160002060030160006101000a81548173ffffffffffffffffffffffffffffffffffffffff021916908373ffffffffffffffffffffffffffffffffffffffff160217905550600160cb805490506109d691906131a0565b60cc60003373ffffffffffffffffffffffffffffffffffffffff1673ffffffffffffffffffffffffffffffffffffffff168152602001908152602001600020600401819055503460cc60003373ffffffffffffffffffffffffffffffffffffffff1673ffffffffffffffffffffffffffffffffffffffff1681526020019081526020016000206002018190555060cb339080600181540180825580915050600190039060005260206000200160009091909190916101000a81548173ffffffffffffffffffffffffffffffffffffffff021916908373ffffffffffffffffffffffffffffffffffffffff160217905550610d21565b3460ca5414610b0f576040517f08c379a0000000000000000000000000000000000000000000000000000000008152600401610b0690613220565b60405180910390fd5b3460cc60003373ffffffffffffffffffffffffffffffffffffffff1673ffffffffffffffffffffffffffffffffffffffff168152602001908152602001600020600001819055508060cc60003373ffffffffffffffffffffffffffffffffffffffff1673ffffffffffffffffffffffffffffffffffffffff168152602001908152602001600020600101819055503360cc60003373ffffffffffffffffffffffffffffffffffffffff1673ffffffffffffffffffffffffffffffffffffffff16815260200190815260200160002060030160006101000a81548173ffffffffffffffffffffffffffffffffffffffff021916908373ffffffffffffffffffffffffffffffffffffffff160217905550600160cb80549050610c3091906131a0565b60cc60003373ffffffffffffffffffffffffffffffffffffffff1673ffffffffffffffffffffffffffffffffffffffff168152602001908152602001600020600401819055503460cc60003373ffffffffffffffffffffffffffffffffffffffff1673ffffffffffffffffffffffffffffffffffffffff1681526020019081526020016000206002018190555060cb339080600181540180825580915050600190039060005260206000200160009091909190916101000a81548173ffffffffffffffffffffffffffffffffffffffff021916908373ffffffffffffffffffffffffffffffffffffffff1602179055505b50565b60c960009054906101000a900473ffffffffffffffffffffffffffffffffffffffff1673ffffffffffffffffffffffffffffffffffffffff163373ffffffffffffffffffffffffffffffffffffffff1614610db4576040517f08c379a0000000000000000000000000000000000000000000000000000000008152600401610dab90612dcd565b60405180910390fd5b604051602001610dc39061328c565b6040516020818303038152906040528051906020012060d8604051602001610deb919061315a565b6040516020818303038152906040528051906020012014610e0b57600080fd5b60d760149054906101000a900460ff168015610e33575060d760159054906101000a900460ff165b15610fb15760005b6002811015610f665760d65460cc600060cb8481548110610e5f57610e5e6132a1565b5b9060005260206000200160009054906101000a900473ffffffffffffffffffffffffffffffffffffffff1673ffffffffffffffffffffffffffffffffffffffff1673ffffffffffffffffffffffffffffffffffffffff1681526020019081526020016000206001015403610f535760cb8181548110610ee157610ee06132a1565b5b9060005260206000200160009054906101000a900473ffffffffffffffffffffffffffffffffffffffff1673ffffffffffffffffffffffffffffffffffffffff166108fc479081150290604051600060405180830381858888f19350505050158015610f51573d6000803e3d6000fd5b505b8080610f5e906132d0565b915050610e3b565b506040518060400160405280600781526020017f534554544c45440000000000000000000000000000000000000000000000000081525060d89081610fab9190612f99565b506110de565b60005b60028110156110975760cb8181548110610fd157610fd06132a1565b5b9060005260206000200160009054906101000a900473ffffffffffffffffffffffffffffffffffffffff1673ffffffffffffffffffffffffffffffffffffffff166108fc60cc60003373ffffffffffffffffffffffffffffffffffffffff1673ffffffffffffffffffffffffffffffffffffffff168152602001908152602001600020600201549081150290604051600060405180830381858888f19350505050158015611083573d6000803e3d6000fd5b50808061108f906132d0565b915050610fb4565b506040518060400160405280600a81526020017f5445524d494e415445440000000000000000000000000000000000000000000081525060d890816110dc9190612f99565b505b565b60d760159054906101000a900460ff1681565b60d760009054906101000a900473ffffffffffffffffffffffffffffffffffffffff1681565b60c960009054906101000a900473ffffffffffffffffffffffffffffffffffffffff1673ffffffffffffffffffffffffffffffffffffffff163373ffffffffffffffffffffffffffffffffffffffff16146111a9576040517f08c379a00000000000000000000000000000000000000000000000000000000081526004016111a090612dcd565b60405180910390fd5b6040518060400160405280600a81526020017f5445524d494e415445440000000000000000000000000000000000000000000081525060d890816111ed9190612f99565b50565b60d55481565b7f000000000000000000000000000000000000000000000000000000000000000073ffffffffffffffffffffffffffffffffffffffff163073ffffffffffffffffffffffffffffffffffffffff1603611284576040517f08c379a000000000000000000000000000000000000000000000000000000000815260040161127b9061338a565b60405180910390fd5b7f000000000000000000000000000000000000000000000000000000000000000073ffffffffffffffffffffffffffffffffffffffff166112c3611f9e565b73ffffffffffffffffffffffffffffffffffffffff1614611319576040517f08c379a00000000000000000000000000000000000000000000000000000000081526004016113109061341c565b60405180910390fd5b61132281611ff5565b61137b81600067ffffffffffffffff8111156113415761134061298c565b5b6040519080825280601f01601f1916602001820160405280156113735781602001600182028036833780820191505090505b506000612000565b50565b600080600090505b60cb80549050811015611421578273ffffffffffffffffffffffffffffffffffffffff1660cb82815481106113be576113bd6132a1565b5b9060005260206000200160009054906101000a900473ffffffffffffffffffffffffffffffffffffffff1673ffffffffffffffffffffffffffffffffffffffff160361140e576001915050611427565b8080611419906132d0565b915050611386565b50600090505b919050565b60cc6020528060005260406000206000915090508060000154908060010154908060020154908060030160009054906101000a900473ffffffffffffffffffffffffffffffffffffffff16908060040154905085565b60008060019054906101000a900460ff161590508080156114b35750600160008054906101000a900460ff1660ff16105b806114e057506114c23061216e565b1580156114df5750600160008054906101000a900460ff1660ff16145b5b61151f576040517f08c379a0000000000000000000000000000000000000000000000000000000008152600401611516906134ae565b60405180910390fd5b60016000806101000a81548160ff021916908360ff160217905550801561155c576001600060016101000a81548160ff0219169083151502179055505b611564612191565b61156c6121ea565b3360c960006101000a81548173ffffffffffffffffffffffffffffffffffffffff021916908373ffffffffffffffffffffffffffffffffffffffff1602179055506040518060400160405280600581526020017f445241465400000000000000000000000000000000000000000000000000000081525060d890816115f19190612f99565b5060405180602001604052808481525060ce60008201518160000190816116189190612f99565b5090505060ce60d06000600181526020019081526020016000206000820181600001908161164691906134e4565b5090505060405180602001604052808381525060cf60008201518160000190816116709190612f99565b5090505060cf60d06000600281526020019081526020016000206000820181600001908161169e91906134e4565b50905050604051806060016040528060018152602001600281526020016040518060400160405280600981526020017f5343484544554c4544000000000000000000000000000000000000000000000081525081525060d16000820151816000015560208201518160010155604082015181600201908161171f9190612f99565b50905050801561177c5760008060016101000a81548160ff0219169083151502179055507f7f26b83ff96e1f2b6a682f133852f6798a09c465da95921460cefb384740249860016040516117739190613614565b60405180910390a15b505050565b7f000000000000000000000000000000000000000000000000000000000000000073ffffffffffffffffffffffffffffffffffffffff163073ffffffffffffffffffffffffffffffffffffffff160361180f576040517f08c379a00000000000000000000000000000000000000000000000000000000081526004016118069061338a565b60405180910390fd5b7f000000000000000000000000000000000000000000000000000000000000000073ffffffffffffffffffffffffffffffffffffffff1661184e611f9e565b73ffffffffffffffffffffffffffffffffffffffff16146118a4576040517f08c379a000000000000000000000000000000000000000000000000000000000815260040161189b9061341c565b60405180910390fd5b6118ad82611ff5565b6118b982826001612000565b5050565b60007f000000000000000000000000000000000000000000000000000000000000000073ffffffffffffffffffffffffffffffffffffffff163073ffffffffffffffffffffffffffffffffffffffff161461194d576040517f08c379a0000000000000000000000000000000000000000000000000000000008152600401611944906136a1565b60405180910390fd5b7f360894a13ba1a3210667c828492db98dca3e2076cc3735a920a3ca505d382bbc60001b905090565b60d760149054906101000a900460ff1681565b60c960009054906101000a900473ffffffffffffffffffffffffffffffffffffffff1673ffffffffffffffffffffffffffffffffffffffff163373ffffffffffffffffffffffffffffffffffffffff1614611a19576040517f08c379a0000000000000000000000000000000000000000000000000000000008152600401611a1090612dcd565b60405180910390fd5b6040518060400160405280600781526020017f4d4154555245440000000000000000000000000000000000000000000000000081525060d89081611a5d9190612f99565b504260d5819055508060d68190555050565b611a7761223b565b611a8160006122b9565b565b60d45481565b60cd8181548110611a9957600080fd5b90600052602060002090600502016000915090508060000154908060010154908060020154908060030160009054906101000a900473ffffffffffffffffffffffffffffffffffffffff16908060040154905085565b60d88054611afc90612d50565b80601f0160208091040260200160405190810160405280929190818152602001828054611b2890612d50565b8015611b755780601f10611b4a57610100808354040283529160200191611b75565b820191906000526020600020905b815481529060010190602001808311611b5857829003601f168201915b505050505081565b604051602001611b8c9061328c565b6040516020818303038152906040528051906020012060d8604051602001611bb4919061315a565b6040516020818303038152906040528051906020012014611bd457600080fd5b600160cc60003373ffffffffffffffffffffffffffffffffffffffff1673ffffffffffffffffffffffffffffffffffffffff1681526020019081526020016000206004015403611c3d578060d760146101000a81548160ff021916908315150217905550611ca3565b600260cc60003373ffffffffffffffffffffffffffffffffffffffff1673ffffffffffffffffffffffffffffffffffffffff1681526020019081526020016000206004015403611ca2578060d760156101000a81548160ff0219169083151502179055505b5b50565b6000603360009054906101000a900473ffffffffffffffffffffffffffffffffffffffff16905090565b60c960009054906101000a900473ffffffffffffffffffffffffffffffffffffffff1681565b60ca5481565b60ce806000018054611d0d90612d50565b80601f0160208091040260200160405190810160405280929190818152602001828054611d3990612d50565b8015611d865780601f10611d5b57610100808354040283529160200191611d86565b820191906000526020600020905b815481529060010190602001808311611d6957829003601f168201915b5050505050905081565b60d65481565b60d0602052806000526040600020600091509050806000018054611db990612d50565b80601f0160208091040260200160405190810160405280929190818152602001828054611de590612d50565b8015611e325780601f10611e0757610100808354040283529160200191611e32565b820191906000526020600020905b815481529060010190602001808311611e1557829003601f168201915b5050505050905081565b611e4461223b565b600073ffffffffffffffffffffffffffffffffffffffff168173ffffffffffffffffffffffffffffffffffffffff1603611eb3576040517f08c379a0000000000000000000000000000000000000000000000000000000008152600401611eaa90613733565b60405180910390fd5b611ebc816122b9565b50565b60cb8181548110611ecf57600080fd5b906000526020600020016000915054906101000a900473ffffffffffffffffffffffffffffffffffffffff1681565b60d1806000015490806001015490806002018054611f1b90612d50565b80601f0160208091040260200160405190810160405280929190818152602001828054611f4790612d50565b8015611f945780601f10611f6957610100808354040283529160200191611f94565b820191906000526020600020905b815481529060010190602001808311611f7757829003601f168201915b5050505050905083565b6000611fcc7f360894a13ba1a3210667c828492db98dca3e2076cc3735a920a3ca505d382bbc60001b61237f565b60000160009054906101000a900473ffffffffffffffffffffffffffffffffffffffff16905090565b611ffd61223b565b50565b61202c7f4910fdfa16fed3260ed0e7147f7cc6da11a60208b5b9406d12a635614ffd914360001b612389565b60000160009054906101000a900460ff16156120505761204b83612393565b612169565b8273ffffffffffffffffffffffffffffffffffffffff166352d1902d6040518163ffffffff1660e01b8152600401602060405180830381865afa9250505080156120b857506040513d601f19601f820116820180604052508101906120b5919061377f565b60015b6120f7576040517f08c379a00000000000000000000000000000000000000000000000000000000081526004016120ee9061381e565b60405180910390fd5b7f360894a13ba1a3210667c828492db98dca3e2076cc3735a920a3ca505d382bbc60001b811461215c576040517f08c379a0000000000000000000000000000000000000000000000000000000008152600401612153906138b0565b60405180910390fd5b5061216883838361244c565b5b505050565b6000808273ffffffffffffffffffffffffffffffffffffffff163b119050919050565b600060019054906101000a900460ff166121e0576040517f08c379a00000000000000000000000000000000000000000000000000000000081526004016121d790613942565b60405180910390fd5b6121e8612478565b565b600060019054906101000a900460ff16612239576040517f08c379a000000000000000000000000000000000000000000000000000000000815260040161223090613942565b60405180910390fd5b565b6122436124d9565b73ffffffffffffffffffffffffffffffffffffffff16612261611ca6565b73ffffffffffffffffffffffffffffffffffffffff16146122b7576040517f08c379a00000000000000000000000000000000000000000000000000000000081526004016122ae906139ae565b60405180910390fd5b565b6000603360009054906101000a900473ffffffffffffffffffffffffffffffffffffffff16905081603360006101000a81548173ffffffffffffffffffffffffffffffffffffffff021916908373ffffffffffffffffffffffffffffffffffffffff1602179055508173ffffffffffffffffffffffffffffffffffffffff168173ffffffffffffffffffffffffffffffffffffffff167f8be0079c531659141344cd1fd0a4f28419497f9722a3daafe3b4186f6b6457e060405160405180910390a35050565b6000819050919050565b6000819050919050565b61239c8161216e565b6123db576040517f08c379a00000000000000000000000000000000000000000000000000000000081526004016123d290613a40565b60405180910390fd5b806124087f360894a13ba1a3210667c828492db98dca3e2076cc3735a920a3ca505d382bbc60001b61237f565b60000160006101000a81548173ffffffffffffffffffffffffffffffffffffffff021916908373ffffffffffffffffffffffffffffffffffffffff16021790555050565b612455836124e1565b6000825111806124625750805b15612473576124718383612530565b505b505050565b600060019054906101000a900460ff166124c7576040517f08c379a00000000000000000000000000000000000000000000000000000000081526004016124be90613942565b60405180910390fd5b6124d76124d26124d9565b6122b9565b565b600033905090565b6124ea81612393565b8073ffffffffffffffffffffffffffffffffffffffff167fbc7cd75a20ee27fd9adebab32041f755214dbc6bffa90cc0225b39da2e5c2d3b60405160405180910390a250565b606061253b8361216e565b61257a576040517f08c379a000000000000000000000000000000000000000000000000000000000815260040161257190613ad2565b60405180910390fd5b6000808473ffffffffffffffffffffffffffffffffffffffff16846040516125a29190613b39565b600060405180830381855af49150503d80600081146125dd576040519150601f19603f3d011682016040523d82523d6000602084013e6125e2565b606091505b509150915061260a8282604051806060016040528060278152602001613b5160279139612614565b9250505092915050565b606083156126245782905061262f565b61262e8383612636565b5b9392505050565b6000825111156126495781518083602001fd5b806040517f08c379a000000000000000000000000000000000000000000000000000000000815260040161267d9190612716565b60405180910390fd5b600081519050919050565b600082825260208201905092915050565b60005b838110156126c05780820151818401526020810190506126a5565b60008484015250505050565b6000601f19601f8301169050919050565b60006126e882612686565b6126f28185612691565b93506127028185602086016126a2565b61270b816126cc565b840191505092915050565b6000602082019050818103600083015261273081846126dd565b905092915050565b6000604051905090565b600080fd5b600080fd5b6000819050919050565b61275f8161274c565b811461276a57600080fd5b50565b60008135905061277c81612756565b92915050565b60006020828403121561279857612797612742565b5b60006127a68482850161276d565b91505092915050565b60008115159050919050565b6127c4816127af565b82525050565b60006020820190506127df60008301846127bb565b92915050565b600073ffffffffffffffffffffffffffffffffffffffff82169050919050565b6000612810826127e5565b9050919050565b61282081612805565b82525050565b600060208201905061283b6000830184612817565b92915050565b61284a8161274c565b82525050565b60006020820190506128656000830184612841565b92915050565b61287481612805565b811461287f57600080fd5b50565b6000813590506128918161286b565b92915050565b6000602082840312156128ad576128ac612742565b5b60006128bb84828501612882565b91505092915050565b60006128cf826127e5565b9050919050565b6128df816128c4565b81146128ea57600080fd5b50565b6000813590506128fc816128d6565b92915050565b60006020828403121561291857612917612742565b5b6000612926848285016128ed565b91505092915050565b600060a0820190506129446000830188612841565b6129516020830187612841565b61295e6040830186612841565b61296b6060830185612817565b6129786080830184612841565b9695505050505050565b600080fd5b600080fd5b7f4e487b7100000000000000000000000000000000000000000000000000000000600052604160045260246000fd5b6129c4826126cc565b810181811067ffffffffffffffff821117156129e3576129e261298c565b5b80604052505050565b60006129f6612738565b9050612a0282826129bb565b919050565b600067ffffffffffffffff821115612a2257612a2161298c565b5b612a2b826126cc565b9050602081019050919050565b82818337600083830152505050565b6000612a5a612a5584612a07565b6129ec565b905082815260208101848484011115612a7657612a75612987565b5b612a81848285612a38565b509392505050565b600082601f830112612a9e57612a9d612982565b5b8135612aae848260208601612a47565b91505092915050565b60008060408385031215612ace57612acd612742565b5b600083013567ffffffffffffffff811115612aec57612aeb612747565b5b612af885828601612a89565b925050602083013567ffffffffffffffff811115612b1957612b18612747565b5b612b2585828601612a89565b9150509250929050565b600067ffffffffffffffff821115612b4a57612b4961298c565b5b612b53826126cc565b9050602081019050919050565b6000612b73612b6e84612b2f565b6129ec565b905082815260208101848484011115612b8f57612b8e612987565b5b612b9a848285612a38565b509392505050565b600082601f830112612bb757612bb6612982565b5b8135612bc7848260208601612b60565b91505092915050565b60008060408385031215612be757612be6612742565b5b6000612bf585828601612882565b925050602083013567ffffffffffffffff811115612c1657612c15612747565b5b612c2285828601612ba2565b9150509250929050565b6000819050919050565b612c3f81612c2c565b82525050565b6000602082019050612c5a6000830184612c36565b92915050565b612c69816127af565b8114612c7457600080fd5b50565b600081359050612c8681612c60565b92915050565b600060208284031215612ca257612ca1612742565b5b6000612cb084828501612c77565b91505092915050565b612cc2816128c4565b82525050565b6000602082019050612cdd6000830184612cb9565b92915050565b6000606082019050612cf86000830186612841565b612d056020830185612841565b8181036040830152612d1781846126dd565b9050949350505050565b7f4e487b7100000000000000000000000000000000000000000000000000000000600052602260045260246000fd5b60006002820490506001821680612d6857607f821691505b602082108103612d7b57612d7a612d21565b5b50919050565b7f6d75737420626520616e206f776e657200000000000000000000000000000000600082015250565b6000612db7601083612691565b9150612dc282612d81565b602082019050919050565b60006020820190508181036000830152612de681612daa565b9050919050565b60008190508160005260206000209050919050565b60006020601f8301049050919050565b600082821b905092915050565b600060088302612e4f7fffffffffffffffffffffffffffffffffffffffffffffffffffffffffffffffff82612e12565b612e598683612e12565b95508019841693508086168417925050509392505050565b6000819050919050565b6000612e96612e91612e8c8461274c565b612e71565b61274c565b9050919050565b6000819050919050565b612eb083612e7b565b612ec4612ebc82612e9d565b848454612e1f565b825550505050565b600090565b612ed9612ecc565b612ee4818484612ea7565b505050565b5b81811015612f0857612efd600082612ed1565b600181019050612eea565b5050565b601f821115612f4d57612f1e81612ded565b612f2784612e02565b81016020851015612f36578190505b612f4a612f4285612e02565b830182612ee9565b50505b505050565b600082821c905092915050565b6000612f7060001984600802612f52565b1980831691505092915050565b6000612f898383612f5f565b9150826002028217905092915050565b612fa282612686565b67ffffffffffffffff811115612fbb57612fba61298c565b5b612fc58254612d50565b612fd0828285612f0c565b600060209050601f8311600181146130035760008415612ff1578287015190505b612ffb8582612f7d565b865550613063565b601f19841661301186612ded565b60005b8281101561303957848901518255600182019150602085019450602081019050613014565b868310156130565784890151613052601f891682612f5f565b8355505b6001600288020188555050505b505050505050565b600081905092915050565b7f5445524d494e4154454400000000000000000000000000000000000000000000600082015250565b60006130ac600a8361306b565b91506130b782613076565b600a82019050919050565b60006130cd8261309f565b9150819050919050565b600081546130e481612d50565b6130ee818661306b565b94506001821660008114613109576001811461311e57613151565b60ff1983168652811515820286019350613151565b61312785612ded565b60005b838110156131495781548189015260018201915060208101905061312a565b838801955050505b50505092915050565b600061316682846130d7565b915081905092915050565b7f4e487b7100000000000000000000000000000000000000000000000000000000600052601160045260246000fd5b60006131ab8261274c565b91506131b68361274c565b92508282019050808211156131ce576131cd613171565b5b92915050565b7f42657420616d6f756e742073686f756c642062652073616d6500000000000000600082015250565b600061320a601983612691565b9150613215826131d4565b602082019050919050565b60006020820190508181036000830152613239816131fd565b9050919050565b7f4d41545552454400000000000000000000000000000000000000000000000000600082015250565b600061327660078361306b565b915061328182613240565b600782019050919050565b600061329782613269565b9150819050919050565b7f4e487b7100000000000000000000000000000000000000000000000000000000600052603260045260246000fd5b60006132db8261274c565b91507fffffffffffffffffffffffffffffffffffffffffffffffffffffffffffffffff820361330d5761330c613171565b5b600182019050919050565b7f46756e6374696f6e206d7573742062652063616c6c6564207468726f7567682060008201527f64656c656761746563616c6c0000000000000000000000000000000000000000602082015250565b6000613374602c83612691565b915061337f82613318565b604082019050919050565b600060208201905081810360008301526133a381613367565b9050919050565b7f46756e6374696f6e206d7573742062652063616c6c6564207468726f7567682060008201527f6163746976652070726f78790000000000000000000000000000000000000000602082015250565b6000613406602c83612691565b9150613411826133aa565b604082019050919050565b60006020820190508181036000830152613435816133f9565b9050919050565b7f496e697469616c697a61626c653a20636f6e747261637420697320616c72656160008201527f647920696e697469616c697a6564000000000000000000000000000000000000602082015250565b6000613498602e83612691565b91506134a38261343c565b604082019050919050565b600060208201905081810360008301526134c78161348b565b9050919050565b6000815490506134dd81612d50565b9050919050565b8181036134f25750506135ca565b6134fb826134ce565b67ffffffffffffffff8111156135145761351361298c565b5b61351e8254612d50565b613529828285612f0c565b6000601f8311600181146135585760008415613546578287015490505b6135508582612f7d565b8655506135c3565b601f19841661356687612ded565b965061357186612ded565b60005b8281101561359957848901548255600182019150600185019450602081019050613574565b868310156135b657848901546135b2601f891682612f5f565b8355505b6001600288020188555050505b5050505050505b565b6000819050919050565b600060ff82169050919050565b60006135fe6135f96135f4846135cc565b612e71565b6135d6565b9050919050565b61360e816135e3565b82525050565b60006020820190506136296000830184613605565b92915050565b7f555550535570677261646561626c653a206d757374206e6f742062652063616c60008201527f6c6564207468726f7567682064656c656761746563616c6c0000000000000000602082015250565b600061368b603883612691565b91506136968261362f565b604082019050919050565b600060208201905081810360008301526136ba8161367e565b9050919050565b7f4f776e61626c653a206e6577206f776e657220697320746865207a65726f206160008201527f6464726573730000000000000000000000000000000000000000000000000000602082015250565b600061371d602683612691565b9150613728826136c1565b604082019050919050565b6000602082019050818103600083015261374c81613710565b9050919050565b61375c81612c2c565b811461376757600080fd5b50565b60008151905061377981613753565b92915050565b60006020828403121561379557613794612742565b5b60006137a38482850161376a565b91505092915050565b7f45524331393637557067726164653a206e657720696d706c656d656e7461746960008201527f6f6e206973206e6f742055555053000000000000000000000000000000000000602082015250565b6000613808602e83612691565b9150613813826137ac565b604082019050919050565b60006020820190508181036000830152613837816137fb565b9050919050565b7f45524331393637557067726164653a20756e737570706f727465642070726f7860008201527f6961626c65555549440000000000000000000000000000000000000000000000602082015250565b600061389a602983612691565b91506138a58261383e565b604082019050919050565b600060208201905081810360008301526138c98161388d565b9050919050565b7f496e697469616c697a61626c653a20636f6e7472616374206973206e6f74206960008201527f6e697469616c697a696e67000000000000000000000000000000000000000000602082015250565b600061392c602b83612691565b9150613937826138d0565b604082019050919050565b6000602082019050818103600083015261395b8161391f565b9050919050565b7f4f776e61626c653a2063616c6c6572206973206e6f7420746865206f776e6572600082015250565b6000613998602083612691565b91506139a382613962565b602082019050919050565b600060208201905081810360008301526139c78161398b565b9050919050565b7f455243313936373a206e657720696d706c656d656e746174696f6e206973206e60008201527f6f74206120636f6e747261637400000000000000000000000000000000000000602082015250565b6000613a2a602d83612691565b9150613a35826139ce565b604082019050919050565b60006020820190508181036000830152613a5981613a1d565b9050919050565b7f416464726573733a2064656c65676174652063616c6c20746f206e6f6e2d636f60008201527f6e74726163740000000000000000000000000000000000000000000000000000602082015250565b6000613abc602683612691565b9150613ac782613a60565b604082019050919050565b60006020820190508181036000830152613aeb81613aaf565b9050919050565b600081519050919050565b600081905092915050565b6000613b1382613af2565b613b1d8185613afd565b9350613b2d8185602086016126a2565b80840191505092915050565b6000613b458284613b08565b91508190509291505056fe416464726573733a206c6f772d6c6576656c2064656c65676174652063616c6c206661696c6564a2646970667358221220bbeb075317b75cf99f41611722588c497cb6d853b4e292a8145adb505ec6d8ec64736f6c63430008110033",
  "linkReferences": {},
  "deployedLinkReferences": {}
}