{
  "_format": "hh-sol-artifact-1",
  "contractName": "Betting",
  "sourceName": "contracts/Betting.sol",
  "abi": [
    {
      "inputs": [],
      "stateMutability": "nonpayable",
      "type": "constructor"
    },
    {
      "anonymous": false,
      "inputs": [
        {
          "indexed": false,
          "internalType": "address",
          "name": "previousAdmin",
          "type": "address"
        },
        {
          "indexed": false,
          "internalType": "address",
          "name": "newAdmin",
          "type": "address"
        }
      ],
      "name": "AdminChanged",
      "type": "event"
    },
    {
      "anonymous": false,
      "inputs": [
        {
          "indexed": true,
          "internalType": "address",
          "name": "beacon",
          "type": "address"
        }
      ],
      "name": "BeaconUpgraded",
      "type": "event"
    },
    {
      "anonymous": false,
      "inputs": [
        {
          "indexed": false,
          "internalType": "uint8",
          "name": "version",
          "type": "uint8"
        }
      ],
      "name": "Initialized",
      "type": "event"
    },
    {
      "anonymous": false,
      "inputs": [
        {
          "indexed": true,
          "internalType": "address",
          "name": "previousOwner",
          "type": "address"
        },
        {
          "indexed": true,
          "internalType": "address",
          "name": "newOwner",
          "type": "address"
        }
      ],
      "name": "OwnershipTransferred",
      "type": "event"
    },
    {
      "anonymous": false,
      "inputs": [
        {
          "indexed": true,
          "internalType": "address",
          "name": "implementation",
          "type": "address"
        }
      ],
      "name": "Upgraded",
      "type": "event"
    },
    {
      "inputs": [
        {
          "internalType": "bool",
          "name": "isApproved",
          "type": "bool"
        }
      ],
      "name": "approveWinner",
      "outputs": [],
      "stateMutability": "nonpayable",
      "type": "function"
    },
    {
      "inputs": [],
      "name": "checkApproval",
      "outputs": [],
      "stateMutability": "nonpayable",
      "type": "function"
    },
    {
      "inputs": [
        {
          "internalType": "address payable",
          "name": "player",
          "type": "address"
        }
      ],
      "name": "checkPlayerExists",
      "outputs": [
        {
          "internalType": "bool",
          "name": "",
          "type": "bool"
        }
      ],
      "stateMutability": "view",
      "type": "function"
    },
    {
      "inputs": [],
      "name": "contractState",
      "outputs": [
        {
          "internalType": "string",
          "name": "",
          "type": "string"
        }
      ],
      "stateMutability": "view",
      "type": "function"
    },
    {
      "inputs": [
        {
          "internalType": "uint256",
          "name": "_winningTeam",
          "type": "uint256"
        }
      ],
      "name": "endEventAndUpdateState",
      "outputs": [],
      "stateMutability": "nonpayable",
      "type": "function"
    },
    {
      "inputs": [],
      "name": "endTime",
      "outputs": [
        {
          "internalType": "uint256",
          "name": "",
          "type": "uint256"
        }
      ],
      "stateMutability": "view",
      "type": "function"
    },
    {
      "inputs": [
        {
          "internalType": "string",
          "name": "team1",
          "type": "string"
        },
        {
          "internalType": "string",
          "name": "team2",
          "type": "string"
        }
      ],
      "name": "initialize",
      "outputs": [],
      "stateMutability": "nonpayable",
      "type": "function"
    },
    {
      "inputs": [],
      "name": "matchObj",
      "outputs": [
        {
          "internalType": "uint256",
          "name": "teamOneId",
          "type": "uint256"
        },
        {
          "internalType": "uint256",
          "name": "teamTwoId",
          "type": "uint256"
        },
        {
          "internalType": "string",
          "name": "matchState",
          "type": "string"
        }
      ],
      "stateMutability": "view",
      "type": "function"
    },
    {
      "inputs": [],
      "name": "minimumBet",
      "outputs": [
        {
          "internalType": "uint256",
          "name": "",
          "type": "uint256"
        }
      ],
      "stateMutability": "view",
      "type": "function"
    },
    {
      "inputs": [],
      "name": "owner",
      "outputs": [
        {
          "internalType": "address",
          "name": "",
          "type": "address"
        }
      ],
      "stateMutability": "view",
      "type": "function"
    },
    {
      "inputs": [],
      "name": "ownerAddr",
      "outputs": [
        {
          "internalType": "address payable",
          "name": "",
          "type": "address"
        }
      ],
      "stateMutability": "view",
      "type": "function"
    },
    {
      "inputs": [
        {
          "internalType": "uint256",
          "name": "teamid",
          "type": "uint256"
        }
      ],
      "name": "placeBet",
      "outputs": [],
      "stateMutability": "payable",
      "type": "function"
    },
    {
      "inputs": [
        {
          "internalType": "uint256",
          "name": "",
          "type": "uint256"
        }
      ],
      "name": "playerArr",
      "outputs": [
        {
          "internalType": "uint256",
          "name": "amountBet",
          "type": "uint256"
        },
        {
          "internalType": "uint256",
          "name": "teamSelected",
          "type": "uint256"
        },
        {
          "internalType": "uint256",
          "name": "betPlaced",
          "type": "uint256"
        },
        {
          "internalType": "address",
          "name": "addr",
          "type": "address"
        },
        {
          "internalType": "uint256",
          "name": "id",
          "type": "uint256"
        }
      ],
      "stateMutability": "view",
      "type": "function"
    },
    {
      "inputs": [
        {
          "internalType": "address",
          "name": "",
          "type": "address"
        }
      ],
      "name": "playerInfo",
      "outputs": [
        {
          "internalType": "uint256",
          "name": "amountBet",
          "type": "uint256"
        },
        {
          "internalType": "uint256",
          "name": "teamSelected",
          "type": "uint256"
        },
        {
          "internalType": "uint256",
          "name": "betPlaced",
          "type": "uint256"
        },
        {
          "internalType": "address",
          "name": "addr",
          "type": "address"
        },
        {
          "internalType": "uint256",
          "name": "id",
          "type": "uint256"
        }
      ],
      "stateMutability": "view",
      "type": "function"
    },
    {
      "inputs": [],
      "name": "playerOneApproval",
      "outputs": [
        {
          "internalType": "bool",
          "name": "",
          "type": "bool"
        }
      ],
      "stateMutability": "view",
      "type": "function"
    },
    {
      "inputs": [],
      "name": "playerTwoApproval",
      "outputs": [
        {
          "internalType": "bool",
          "name": "",
          "type": "bool"
        }
      ],
      "stateMutability": "view",
      "type": "function"
    },
    {
      "inputs": [
        {
          "internalType": "uint256",
          "name": "",
          "type": "uint256"
        }
      ],
      "name": "players",
      "outputs": [
        {
          "internalType": "address payable",
          "name": "",
          "type": "address"
        }
      ],
      "stateMutability": "view",
      "type": "function"
    },
    {
      "inputs": [],
      "name": "proxiableUUID",
      "outputs": [
        {
          "internalType": "bytes32",
          "name": "",
          "type": "bytes32"
        }
      ],
      "stateMutability": "view",
      "type": "function"
    },
    {
      "inputs": [],
      "name": "renounceOwnership",
      "outputs": [],
      "stateMutability": "nonpayable",
      "type": "function"
    },
    {
      "inputs": [],
      "name": "startEventAndUpdateState",
      "outputs": [],
      "stateMutability": "nonpayable",
      "type": "function"
    },
    {
      "inputs": [],
      "name": "startTime",
      "outputs": [
        {
          "internalType": "uint256",
          "name": "",
          "type": "uint256"
        }
      ],
      "stateMutability": "view",
      "type": "function"
    },
    {
      "inputs": [
        {
          "internalType": "uint256",
          "name": "",
          "type": "uint256"
        }
      ],
      "name": "teamMap",
      "outputs": [
        {
          "internalType": "string",
          "name": "country",
          "type": "string"
        }
      ],
      "stateMutability": "view",
      "type": "function"
    },
    {
      "inputs": [],
      "name": "teamOneObj",
      "outputs": [
        {
          "internalType": "string",
          "name": "country",
          "type": "string"
        }
      ],
      "stateMutability": "view",
      "type": "function"
    },
    {
      "inputs": [],
      "name": "teamTwoObj",
      "outputs": [
        {
          "internalType": "string",
          "name": "country",
          "type": "string"
        }
      ],
      "stateMutability": "view",
      "type": "function"
    },
    {
      "inputs": [],
      "name": "terminateContract",
      "outputs": [],
      "stateMutability": "nonpayable",
      "type": "function"
    },
    {
      "inputs": [
        {
          "internalType": "address",
          "name": "newOwner",
          "type": "address"
        }
      ],
      "name": "transferOwnership",
      "outputs": [],
      "stateMutability": "nonpayable",
      "type": "function"
    },
    {
      "inputs": [
        {
          "internalType": "address",
          "name": "newImplementation",
          "type": "address"
        }
      ],
      "name": "upgradeTo",
      "outputs": [],
      "stateMutability": "nonpayable",
      "type": "function"
    },
    {
      "inputs": [
        {
          "internalType": "address",
          "name": "newImplementation",
          "type": "address"
        },
        {
          "internalType": "bytes",
          "name": "data",
          "type": "bytes"
        }
      ],
      "name": "upgradeToAndCall",
      "outputs": [],
      "stateMutability": "payable",
      "type": "function"
    },
    {
      "inputs": [],
      "name": "winningTeam",
      "outputs": [
        {
          "internalType": "uint256",
          "name": "",
          "type": "uint256"
        }
      ],
      "stateMutability": "view",
      "type": "function"
    }
  ],
  "bytecode": "0x60a06040523073ffffffffffffffffffffffffffffffffffffffff1660809073ffffffffffffffffffffffffffffffffffffffff168152503480156200004457600080fd5b50620000556200005b60201b60201c565b62000206565b600060019054906101000a900460ff1615620000ae576040517f08c379a0000000000000000000000000000000000000000000000000000000008152600401620000a590620001a9565b60405180910390fd5b60ff801660008054906101000a900460ff1660ff161015620001205760ff6000806101000a81548160ff021916908360ff1602179055507f7f26b83ff96e1f2b6a682f133852f6798a09c465da95921460cefb384740249860ff604051620001179190620001e9565b60405180910390a15b565b600082825260208201905092915050565b7f496e697469616c697a61626c653a20636f6e747261637420697320696e69746960008201527f616c697a696e6700000000000000000000000000000000000000000000000000602082015250565b60006200019160278362000122565b91506200019e8262000133565b604082019050919050565b60006020820190508181036000830152620001c48162000182565b9050919050565b600060ff82169050919050565b620001e381620001cb565b82525050565b6000602082019050620002006000830184620001d8565b92915050565b608051613fac6200023e600039600081816114c30152818161155101528181611a4e01528181611adc0152611b8c0152613fac6000f3fe6080604052600436106101c25760003560e01c806378e97925116100f7578063c38a8afd11610095578063e7b59e4611610064578063e7b59e46146105c2578063f2fde38b146105ff578063f71d96cb14610628578063fb174ffb14610665576101c2565b8063c38a8afd14610518578063ceb759f714610543578063de3f18e21461056e578063e3fbad2014610599576101c2565b80638a5a6d40116100d15780638a5a6d40146104825780638da5cb5b146104ab5780639c675eaa146104d6578063a0e11fbd14610501576101c2565b806378e97925146103eb57806383fccff31461041657806385209ee014610457576101c2565b80634081d916116101645780634f1ef2861161013e5780634f1ef2861461036257806352d1902d1461037e57806366747331146103a9578063715018a6146103d4576101c2565b80634081d916146102bb5780634b114691146102f85780634cd88b7614610339576101c2565b80631d2e5191116101a05780631d2e5191146102255780632fd949ca146102505780633197cbb6146102675780633659cfe614610292576101c2565b806302a304c5146101c757806310fe7c48146101f257806317d778a41461020e575b600080fd5b3480156101d357600080fd5b506101dc610692565b6040516101e99190612ab4565b60405180910390f35b61020c60048036038101906102079190612b20565b610726565b005b34801561021a57600080fd5b50610223610cf7565b005b34801561023157600080fd5b5061023a611402565b6040516102479190612b68565b60405180910390f35b34801561025c57600080fd5b50610265611415565b005b34801561027357600080fd5b5061027c6114bb565b6040516102899190612b92565b60405180910390f35b34801561029e57600080fd5b506102b960048036038101906102b49190612c0b565b6114c1565b005b3480156102c757600080fd5b506102e260048036038101906102dd9190612c76565b611649565b6040516102ef9190612b68565b60405180910390f35b34801561030457600080fd5b5061031f600480360381019061031a9190612c0b565b6116f7565b604051610330959493929190612cb2565b60405180910390f35b34801561034557600080fd5b50610360600480360381019061035b9190612e3a565b61174d565b005b61037c60048036038101906103779190612f53565b611a4c565b005b34801561038a57600080fd5b50610393611b88565b6040516103a09190612fc8565b60405180910390f35b3480156103b557600080fd5b506103be611c41565b6040516103cb9190612b68565b60405180910390f35b3480156103e057600080fd5b506103e9611c54565b005b3480156103f757600080fd5b50610400611c68565b60405161040d9190612b92565b60405180910390f35b34801561042257600080fd5b5061043d60048036038101906104389190612b20565b611c6e565b60405161044e959493929190612cb2565b60405180910390f35b34801561046357600080fd5b5061046c611cd4565b6040516104799190612ab4565b60405180910390f35b34801561048e57600080fd5b506104a960048036038101906104a4919061300f565b611d62565b005b3480156104b757600080fd5b506104c0611ee2565b6040516104cd919061303c565b60405180910390f35b3480156104e257600080fd5b506104eb611f0c565b6040516104f89190613066565b60405180910390f35b34801561050d57600080fd5b50610516611f32565b005b34801561052457600080fd5b5061052d611fdf565b60405161053a9190612b92565b60405180910390f35b34801561054f57600080fd5b50610558611fe5565b6040516105659190612ab4565b60405180910390f35b34801561057a57600080fd5b50610583612079565b6040516105909190612b92565b60405180910390f35b3480156105a557600080fd5b506105c060048036038101906105bb9190612b20565b61207f565b005b3480156105ce57600080fd5b506105e960048036038101906105e49190612b20565b612134565b6040516105f69190612ab4565b60405180910390f35b34801561060b57600080fd5b5061062660048036038101906106219190612c0b565b6121da565b005b34801561063457600080fd5b5061064f600480360381019061064a9190612b20565b61225d565b60405161065c9190613066565b60405180910390f35b34801561067157600080fd5b5061067a61229c565b60405161068993929190613081565b60405180910390f35b60cf8060000180546106a3906130ee565b80601f01602080910402602001604051908101604052809291908181526020018280546106cf906130ee565b801561071c5780601f106106f15761010080835404028352916020019161071c565b820191906000526020600020905b8154815290600101906020018083116106ff57829003601f168201915b5050505050905081565b61072f33611649565b1561076f576040517f08c379a00000000000000000000000000000000000000000000000000000000081526004016107669061316b565b60405180910390fd5b60405160200161077e906131e2565b6040516020818303038152906040528051906020012060d86040516020016107a6919061328f565b60405160208183030381529060405280519060200120036107c657600080fd5b6040516020016107d5906132f2565b6040516020818303038152906040528051906020012060d1600201604051602001610800919061328f565b604051602081830303815290604052805190602001200361082057600080fd5b60405160200161082f90613353565b6040516020818303038152906040528051906020012060d8604051602001610857919061328f565b604051602081830303815290604052805190602001200361087757600080fd5b600060ca5403610a9e573460ca819055503460cc60003373ffffffffffffffffffffffffffffffffffffffff1673ffffffffffffffffffffffffffffffffffffffff168152602001908152602001600020600001819055508060cc60003373ffffffffffffffffffffffffffffffffffffffff1673ffffffffffffffffffffffffffffffffffffffff168152602001908152602001600020600101819055503360cc60003373ffffffffffffffffffffffffffffffffffffffff1673ffffffffffffffffffffffffffffffffffffffff16815260200190815260200160002060030160006101000a81548173ffffffffffffffffffffffffffffffffffffffff021916908373ffffffffffffffffffffffffffffffffffffffff160217905550600160cb805490506109a99190613397565b60cc60003373ffffffffffffffffffffffffffffffffffffffff1673ffffffffffffffffffffffffffffffffffffffff168152602001908152602001600020600401819055503460cc60003373ffffffffffffffffffffffffffffffffffffffff1673ffffffffffffffffffffffffffffffffffffffff1681526020019081526020016000206002018190555060cb339080600181540180825580915050600190039060005260206000200160009091909190916101000a81548173ffffffffffffffffffffffffffffffffffffffff021916908373ffffffffffffffffffffffffffffffffffffffff160217905550610cf4565b3460ca5414610ae2576040517f08c379a0000000000000000000000000000000000000000000000000000000008152600401610ad990613417565b60405180910390fd5b3460cc60003373ffffffffffffffffffffffffffffffffffffffff1673ffffffffffffffffffffffffffffffffffffffff168152602001908152602001600020600001819055508060cc60003373ffffffffffffffffffffffffffffffffffffffff1673ffffffffffffffffffffffffffffffffffffffff168152602001908152602001600020600101819055503360cc60003373ffffffffffffffffffffffffffffffffffffffff1673ffffffffffffffffffffffffffffffffffffffff16815260200190815260200160002060030160006101000a81548173ffffffffffffffffffffffffffffffffffffffff021916908373ffffffffffffffffffffffffffffffffffffffff160217905550600160cb80549050610c039190613397565b60cc60003373ffffffffffffffffffffffffffffffffffffffff1673ffffffffffffffffffffffffffffffffffffffff168152602001908152602001600020600401819055503460cc60003373ffffffffffffffffffffffffffffffffffffffff1673ffffffffffffffffffffffffffffffffffffffff1681526020019081526020016000206002018190555060cb339080600181540180825580915050600190039060005260206000200160009091909190916101000a81548173ffffffffffffffffffffffffffffffffffffffff021916908373ffffffffffffffffffffffffffffffffffffffff1602179055505b50565b610cff61233c565b604051602001610d0e906131e2565b6040516020818303038152906040528051906020012060d8604051602001610d36919061328f565b6040516020818303038152906040528051906020012003610d5657600080fd5b604051602001610d6590613353565b6040516020818303038152906040528051906020012060d8604051602001610d8d919061328f565b6040516020818303038152906040528051906020012014610dad57600080fd5b60d760009054906101000a900460ff168015610dd5575060d760019054906101000a900460ff165b156111ea5760cc600060cb600181548110610df357610df2613437565b5b9060005260206000200160009054906101000a900473ffffffffffffffffffffffffffffffffffffffff1673ffffffffffffffffffffffffffffffffffffffff1673ffffffffffffffffffffffffffffffffffffffff1681526020019081526020016000206001015460cc600060cb600081548110610e7557610e74613437565b5b9060005260206000200160009054906101000a900473ffffffffffffffffffffffffffffffffffffffff1673ffffffffffffffffffffffffffffffffffffffff1673ffffffffffffffffffffffffffffffffffffffff16815260200190815260200160002060010154036110705760005b600281101561106a57600060cb8281548110610f0557610f04613437565b5b9060005260206000200160009054906101000a900473ffffffffffffffffffffffffffffffffffffffff169050600060cc60008373ffffffffffffffffffffffffffffffffffffffff1673ffffffffffffffffffffffffffffffffffffffff1681526020019081526020016000206040518060a00160405290816000820154815260200160018201548152602001600282015481526020016003820160009054906101000a900473ffffffffffffffffffffffffffffffffffffffff1673ffffffffffffffffffffffffffffffffffffffff1673ffffffffffffffffffffffffffffffffffffffff168152602001600482015481525050905060008160400151905060008390508073ffffffffffffffffffffffffffffffffffffffff166108fc839081150290604051600060405180830381858888f19350505050158015611052573d6000803e3d6000fd5b5050505050808061106290613466565b915050610ee6565b506111a0565b60005b600281101561119e5760d65460cc600060cb848154811061109757611096613437565b5b9060005260206000200160009054906101000a900473ffffffffffffffffffffffffffffffffffffffff1673ffffffffffffffffffffffffffffffffffffffff1673ffffffffffffffffffffffffffffffffffffffff168152602001908152602001600020600101540361118b5760cb818154811061111957611118613437565b5b9060005260206000200160009054906101000a900473ffffffffffffffffffffffffffffffffffffffff1673ffffffffffffffffffffffffffffffffffffffff166108fc479081150290604051600060405180830381858888f19350505050158015611189573d6000803e3d6000fd5b505b808061119690613466565b915050611073565b505b6040518060400160405280600781526020017f534554544c45440000000000000000000000000000000000000000000000000081525060d890816111e49190613645565b506113b8565b60005b600281101561137157600060cb828154811061120c5761120b613437565b5b9060005260206000200160009054906101000a900473ffffffffffffffffffffffffffffffffffffffff169050600060cc60008373ffffffffffffffffffffffffffffffffffffffff1673ffffffffffffffffffffffffffffffffffffffff1681526020019081526020016000206040518060a00160405290816000820154815260200160018201548152602001600282015481526020016003820160009054906101000a900473ffffffffffffffffffffffffffffffffffffffff1673ffffffffffffffffffffffffffffffffffffffff1673ffffffffffffffffffffffffffffffffffffffff168152602001600482015481525050905060008160400151905060008390508073ffffffffffffffffffffffffffffffffffffffff166108fc839081150290604051600060405180830381858888f19350505050158015611359573d6000803e3d6000fd5b5050505050808061136990613466565b9150506111ed565b506040518060400160405280600a81526020017f5445524d494e415445440000000000000000000000000000000000000000000081525060d890816113b69190613645565b505b6040518060400160405280600581526020017f454e44454400000000000000000000000000000000000000000000000000000081525060d160020190816113ff9190613645565b50565b60d760019054906101000a900460ff1681565b61141d61233c565b60405160200161142c906131e2565b6040516020818303038152906040528051906020012060d8604051602001611454919061328f565b604051602081830303815290604052805190602001200361147457600080fd5b6040518060400160405280600a81526020017f5445524d494e415445440000000000000000000000000000000000000000000081525060d890816114b89190613645565b50565b60d55481565b7f000000000000000000000000000000000000000000000000000000000000000073ffffffffffffffffffffffffffffffffffffffff163073ffffffffffffffffffffffffffffffffffffffff160361154f576040517f08c379a000000000000000000000000000000000000000000000000000000000815260040161154690613789565b60405180910390fd5b7f000000000000000000000000000000000000000000000000000000000000000073ffffffffffffffffffffffffffffffffffffffff1661158e6123ba565b73ffffffffffffffffffffffffffffffffffffffff16146115e4576040517f08c379a00000000000000000000000000000000000000000000000000000000081526004016115db9061381b565b60405180910390fd5b6115ed81612411565b61164681600067ffffffffffffffff81111561160c5761160b612d0f565b5b6040519080825280601f01601f19166020018201604052801561163e5781602001600182028036833780820191505090505b50600061241c565b50565b600080600090505b60cb805490508110156116ec578273ffffffffffffffffffffffffffffffffffffffff1660cb828154811061168957611688613437565b5b9060005260206000200160009054906101000a900473ffffffffffffffffffffffffffffffffffffffff1673ffffffffffffffffffffffffffffffffffffffff16036116d95760019150506116f2565b80806116e490613466565b915050611651565b50600090505b919050565b60cc6020528060005260406000206000915090508060000154908060010154908060020154908060030160009054906101000a900473ffffffffffffffffffffffffffffffffffffffff16908060040154905085565b60008060019054906101000a900460ff1615905080801561177e5750600160008054906101000a900460ff1660ff16105b806117ab575061178d3061258a565b1580156117aa5750600160008054906101000a900460ff1660ff16145b5b6117ea576040517f08c379a00000000000000000000000000000000000000000000000000000000081526004016117e1906138ad565b60405180910390fd5b60016000806101000a81548160ff021916908360ff1602179055508015611827576001600060016101000a81548160ff0219169083151502179055505b61182f6125ad565b611837612606565b3360c960006101000a81548173ffffffffffffffffffffffffffffffffffffffff021916908373ffffffffffffffffffffffffffffffffffffffff1602179055506040518060400160405280600581526020017f445241465400000000000000000000000000000000000000000000000000000081525060d890816118bc9190613645565b5060405180602001604052808481525060ce60008201518160000190816118e39190613645565b5090505060ce60d06000600181526020019081526020016000206000820181600001908161191191906138e3565b5090505060405180602001604052808381525060cf600082015181600001908161193b9190613645565b5090505060cf60d06000600281526020019081526020016000206000820181600001908161196991906138e3565b50905050604051806060016040528060018152602001600281526020016040518060400160405280600981526020017f5343484544554c4544000000000000000000000000000000000000000000000081525081525060d1600082015181600001556020820151816001015560408201518160020190816119ea9190613645565b509050508015611a475760008060016101000a81548160ff0219169083151502179055507f7f26b83ff96e1f2b6a682f133852f6798a09c465da95921460cefb38474024986001604051611a3e9190613a13565b60405180910390a15b505050565b7f000000000000000000000000000000000000000000000000000000000000000073ffffffffffffffffffffffffffffffffffffffff163073ffffffffffffffffffffffffffffffffffffffff1603611ada576040517f08c379a0000000000000000000000000000000000000000000000000000000008152600401611ad190613789565b60405180910390fd5b7f000000000000000000000000000000000000000000000000000000000000000073ffffffffffffffffffffffffffffffffffffffff16611b196123ba565b73ffffffffffffffffffffffffffffffffffffffff1614611b6f576040517f08c379a0000000000000000000000000000000000000000000000000000000008152600401611b669061381b565b60405180910390fd5b611b7882612411565b611b848282600161241c565b5050565b60007f000000000000000000000000000000000000000000000000000000000000000073ffffffffffffffffffffffffffffffffffffffff163073ffffffffffffffffffffffffffffffffffffffff1614611c18576040517f08c379a0000000000000000000000000000000000000000000000000000000008152600401611c0f90613aa0565b60405180910390fd5b7f360894a13ba1a3210667c828492db98dca3e2076cc3735a920a3ca505d382bbc60001b905090565b60d760009054906101000a900460ff1681565b611c5c61233c565b611c666000612657565b565b60d45481565b60cd8181548110611c7e57600080fd5b90600052602060002090600502016000915090508060000154908060010154908060020154908060030160009054906101000a900473ffffffffffffffffffffffffffffffffffffffff16908060040154905085565b60d88054611ce1906130ee565b80601f0160208091040260200160405190810160405280929190818152602001828054611d0d906130ee565b8015611d5a5780601f10611d2f57610100808354040283529160200191611d5a565b820191906000526020600020905b815481529060010190602001808311611d3d57829003601f168201915b505050505081565b604051602001611d71906131e2565b6040516020818303038152906040528051906020012060d8604051602001611d99919061328f565b6040516020818303038152906040528051906020012003611db957600080fd5b604051602001611dc890613353565b6040516020818303038152906040528051906020012060d8604051602001611df0919061328f565b6040516020818303038152906040528051906020012014611e1057600080fd5b600160cc60003373ffffffffffffffffffffffffffffffffffffffff1673ffffffffffffffffffffffffffffffffffffffff1681526020019081526020016000206004015403611e79578060d760006101000a81548160ff021916908315150217905550611edf565b600260cc60003373ffffffffffffffffffffffffffffffffffffffff1673ffffffffffffffffffffffffffffffffffffffff1681526020019081526020016000206004015403611ede578060d760016101000a81548160ff0219169083151502179055505b5b50565b6000603360009054906101000a900473ffffffffffffffffffffffffffffffffffffffff16905090565b60c960009054906101000a900473ffffffffffffffffffffffffffffffffffffffff1681565b611f3a61233c565b604051602001611f49906131e2565b6040516020818303038152906040528051906020012060d8604051602001611f71919061328f565b6040516020818303038152906040528051906020012003611f9157600080fd5b6040518060400160405280600981526020017f454646454354495645000000000000000000000000000000000000000000000081525060d89081611fd59190613645565b504260d481905550565b60ca5481565b60ce806000018054611ff6906130ee565b80601f0160208091040260200160405190810160405280929190818152602001828054612022906130ee565b801561206f5780601f106120445761010080835404028352916020019161206f565b820191906000526020600020905b81548152906001019060200180831161205257829003601f168201915b5050505050905081565b60d65481565b61208761233c565b604051602001612096906131e2565b6040516020818303038152906040528051906020012060d86040516020016120be919061328f565b60405160208183030381529060405280519060200120036120de57600080fd5b6040518060400160405280600781526020017f4d4154555245440000000000000000000000000000000000000000000000000081525060d890816121229190613645565b504260d5819055508060d68190555050565b60d0602052806000526040600020600091509050806000018054612157906130ee565b80601f0160208091040260200160405190810160405280929190818152602001828054612183906130ee565b80156121d05780601f106121a5576101008083540402835291602001916121d0565b820191906000526020600020905b8154815290600101906020018083116121b357829003601f168201915b5050505050905081565b6121e261233c565b600073ffffffffffffffffffffffffffffffffffffffff168173ffffffffffffffffffffffffffffffffffffffff1603612251576040517f08c379a000000000000000000000000000000000000000000000000000000000815260040161224890613b32565b60405180910390fd5b61225a81612657565b50565b60cb818154811061226d57600080fd5b906000526020600020016000915054906101000a900473ffffffffffffffffffffffffffffffffffffffff1681565b60d18060000154908060010154908060020180546122b9906130ee565b80601f01602080910402602001604051908101604052809291908181526020018280546122e5906130ee565b80156123325780601f1061230757610100808354040283529160200191612332565b820191906000526020600020905b81548152906001019060200180831161231557829003601f168201915b5050505050905083565b61234461271d565b73ffffffffffffffffffffffffffffffffffffffff16612362611ee2565b73ffffffffffffffffffffffffffffffffffffffff16146123b8576040517f08c379a00000000000000000000000000000000000000000000000000000000081526004016123af90613b9e565b60405180910390fd5b565b60006123e87f360894a13ba1a3210667c828492db98dca3e2076cc3735a920a3ca505d382bbc60001b612725565b60000160009054906101000a900473ffffffffffffffffffffffffffffffffffffffff16905090565b61241961233c565b50565b6124487f4910fdfa16fed3260ed0e7147f7cc6da11a60208b5b9406d12a635614ffd914360001b61272f565b60000160009054906101000a900460ff161561246c5761246783612739565b612585565b8273ffffffffffffffffffffffffffffffffffffffff166352d1902d6040518163ffffffff1660e01b8152600401602060405180830381865afa9250505080156124d457506040513d601f19601f820116820180604052508101906124d19190613bea565b60015b612513576040517f08c379a000000000000000000000000000000000000000000000000000000000815260040161250a90613c89565b60405180910390fd5b7f360894a13ba1a3210667c828492db98dca3e2076cc3735a920a3ca505d382bbc60001b8114612578576040517f08c379a000000000000000000000000000000000000000000000000000000000815260040161256f90613d1b565b60405180910390fd5b506125848383836127f2565b5b505050565b6000808273ffffffffffffffffffffffffffffffffffffffff163b119050919050565b600060019054906101000a900460ff166125fc576040517f08c379a00000000000000000000000000000000000000000000000000000000081526004016125f390613dad565b60405180910390fd5b61260461281e565b565b600060019054906101000a900460ff16612655576040517f08c379a000000000000000000000000000000000000000000000000000000000815260040161264c90613dad565b60405180910390fd5b565b6000603360009054906101000a900473ffffffffffffffffffffffffffffffffffffffff16905081603360006101000a81548173ffffffffffffffffffffffffffffffffffffffff021916908373ffffffffffffffffffffffffffffffffffffffff1602179055508173ffffffffffffffffffffffffffffffffffffffff168173ffffffffffffffffffffffffffffffffffffffff167f8be0079c531659141344cd1fd0a4f28419497f9722a3daafe3b4186f6b6457e060405160405180910390a35050565b600033905090565b6000819050919050565b6000819050919050565b6127428161258a565b612781576040517f08c379a000000000000000000000000000000000000000000000000000000000815260040161277890613e3f565b60405180910390fd5b806127ae7f360894a13ba1a3210667c828492db98dca3e2076cc3735a920a3ca505d382bbc60001b612725565b60000160006101000a81548173ffffffffffffffffffffffffffffffffffffffff021916908373ffffffffffffffffffffffffffffffffffffffff16021790555050565b6127fb8361287f565b6000825111806128085750805b156128195761281783836128ce565b505b505050565b600060019054906101000a900460ff1661286d576040517f08c379a000000000000000000000000000000000000000000000000000000000815260040161286490613dad565b60405180910390fd5b61287d61287861271d565b612657565b565b61288881612739565b8073ffffffffffffffffffffffffffffffffffffffff167fbc7cd75a20ee27fd9adebab32041f755214dbc6bffa90cc0225b39da2e5c2d3b60405160405180910390a250565b60606128d98361258a565b612918576040517f08c379a000000000000000000000000000000000000000000000000000000000815260040161290f90613ed1565b60405180910390fd5b6000808473ffffffffffffffffffffffffffffffffffffffff16846040516129409190613f38565b600060405180830381855af49150503d806000811461297b576040519150601f19603f3d011682016040523d82523d6000602084013e612980565b606091505b50915091506129a88282604051806060016040528060278152602001613f50602791396129b2565b9250505092915050565b606083156129c2578290506129cd565b6129cc83836129d4565b5b9392505050565b6000825111156129e75781518083602001fd5b806040517f08c379a0000000000000000000000000000000000000000000000000000000008152600401612a1b9190612ab4565b60405180910390fd5b600081519050919050565b600082825260208201905092915050565b60005b83811015612a5e578082015181840152602081019050612a43565b60008484015250505050565b6000601f19601f8301169050919050565b6000612a8682612a24565b612a908185612a2f565b9350612aa0818560208601612a40565b612aa981612a6a565b840191505092915050565b60006020820190508181036000830152612ace8184612a7b565b905092915050565b6000604051905090565b600080fd5b600080fd5b6000819050919050565b612afd81612aea565b8114612b0857600080fd5b50565b600081359050612b1a81612af4565b92915050565b600060208284031215612b3657612b35612ae0565b5b6000612b4484828501612b0b565b91505092915050565b60008115159050919050565b612b6281612b4d565b82525050565b6000602082019050612b7d6000830184612b59565b92915050565b612b8c81612aea565b82525050565b6000602082019050612ba76000830184612b83565b92915050565b600073ffffffffffffffffffffffffffffffffffffffff82169050919050565b6000612bd882612bad565b9050919050565b612be881612bcd565b8114612bf357600080fd5b50565b600081359050612c0581612bdf565b92915050565b600060208284031215612c2157612c20612ae0565b5b6000612c2f84828501612bf6565b91505092915050565b6000612c4382612bad565b9050919050565b612c5381612c38565b8114612c5e57600080fd5b50565b600081359050612c7081612c4a565b92915050565b600060208284031215612c8c57612c8b612ae0565b5b6000612c9a84828501612c61565b91505092915050565b612cac81612bcd565b82525050565b600060a082019050612cc76000830188612b83565b612cd46020830187612b83565b612ce16040830186612b83565b612cee6060830185612ca3565b612cfb6080830184612b83565b9695505050505050565b600080fd5b600080fd5b7f4e487b7100000000000000000000000000000000000000000000000000000000600052604160045260246000fd5b612d4782612a6a565b810181811067ffffffffffffffff82111715612d6657612d65612d0f565b5b80604052505050565b6000612d79612ad6565b9050612d858282612d3e565b919050565b600067ffffffffffffffff821115612da557612da4612d0f565b5b612dae82612a6a565b9050602081019050919050565b82818337600083830152505050565b6000612ddd612dd884612d8a565b612d6f565b905082815260208101848484011115612df957612df8612d0a565b5b612e04848285612dbb565b509392505050565b600082601f830112612e2157612e20612d05565b5b8135612e31848260208601612dca565b91505092915050565b60008060408385031215612e5157612e50612ae0565b5b600083013567ffffffffffffffff811115612e6f57612e6e612ae5565b5b612e7b85828601612e0c565b925050602083013567ffffffffffffffff811115612e9c57612e9b612ae5565b5b612ea885828601612e0c565b9150509250929050565b600067ffffffffffffffff821115612ecd57612ecc612d0f565b5b612ed682612a6a565b9050602081019050919050565b6000612ef6612ef184612eb2565b612d6f565b905082815260208101848484011115612f1257612f11612d0a565b5b612f1d848285612dbb565b509392505050565b600082601f830112612f3a57612f39612d05565b5b8135612f4a848260208601612ee3565b91505092915050565b60008060408385031215612f6a57612f69612ae0565b5b6000612f7885828601612bf6565b925050602083013567ffffffffffffffff811115612f9957612f98612ae5565b5b612fa585828601612f25565b9150509250929050565b6000819050919050565b612fc281612faf565b82525050565b6000602082019050612fdd6000830184612fb9565b92915050565b612fec81612b4d565b8114612ff757600080fd5b50565b60008135905061300981612fe3565b92915050565b60006020828403121561302557613024612ae0565b5b600061303384828501612ffa565b91505092915050565b60006020820190506130516000830184612ca3565b92915050565b61306081612c38565b82525050565b600060208201905061307b6000830184613057565b92915050565b60006060820190506130966000830186612b83565b6130a36020830185612b83565b81810360408301526130b58184612a7b565b9050949350505050565b7f4e487b7100000000000000000000000000000000000000000000000000000000600052602260045260246000fd5b6000600282049050600182168061310657607f821691505b602082108103613119576131186130bf565b5b50919050565b7f506c617965722063616e206f6e6c7920626574206f6e63650000000000000000600082015250565b6000613155601883612a2f565b91506131608261311f565b602082019050919050565b6000602082019050818103600083015261318481613148565b9050919050565b600081905092915050565b7f5445524d494e4154454400000000000000000000000000000000000000000000600082015250565b60006131cc600a8361318b565b91506131d782613196565b600a82019050919050565b60006131ed826131bf565b9150819050919050565b60008190508160005260206000209050919050565b60008154613219816130ee565b613223818661318b565b9450600182166000811461323e576001811461325357613286565b60ff1983168652811515820286019350613286565b61325c856131f7565b60005b8381101561327e5781548189015260018201915060208101905061325f565b838801955050505b50505092915050565b600061329b828461320c565b915081905092915050565b7f454e444544000000000000000000000000000000000000000000000000000000600082015250565b60006132dc60058361318b565b91506132e7826132a6565b600582019050919050565b60006132fd826132cf565b9150819050919050565b7f4d41545552454400000000000000000000000000000000000000000000000000600082015250565b600061333d60078361318b565b915061334882613307565b600782019050919050565b600061335e82613330565b9150819050919050565b7f4e487b7100000000000000000000000000000000000000000000000000000000600052601160045260246000fd5b60006133a282612aea565b91506133ad83612aea565b92508282019050808211156133c5576133c4613368565b5b92915050565b7f42657420616d6f756e742073686f756c642062652073616d6500000000000000600082015250565b6000613401601983612a2f565b915061340c826133cb565b602082019050919050565b60006020820190508181036000830152613430816133f4565b9050919050565b7f4e487b7100000000000000000000000000000000000000000000000000000000600052603260045260246000fd5b600061347182612aea565b91507fffffffffffffffffffffffffffffffffffffffffffffffffffffffffffffffff82036134a3576134a2613368565b5b600182019050919050565b60006020601f8301049050919050565b600082821b905092915050565b6000600883026134fb7fffffffffffffffffffffffffffffffffffffffffffffffffffffffffffffffff826134be565b61350586836134be565b95508019841693508086168417925050509392505050565b6000819050919050565b600061354261353d61353884612aea565b61351d565b612aea565b9050919050565b6000819050919050565b61355c83613527565b61357061356882613549565b8484546134cb565b825550505050565b600090565b613585613578565b613590818484613553565b505050565b5b818110156135b4576135a960008261357d565b600181019050613596565b5050565b601f8211156135f9576135ca816131f7565b6135d3846134ae565b810160208510156135e2578190505b6135f66135ee856134ae565b830182613595565b50505b505050565b600082821c905092915050565b600061361c600019846008026135fe565b1980831691505092915050565b6000613635838361360b565b9150826002028217905092915050565b61364e82612a24565b67ffffffffffffffff81111561366757613666612d0f565b5b61367182546130ee565b61367c8282856135b8565b600060209050601f8311600181146136af576000841561369d578287015190505b6136a78582613629565b86555061370f565b601f1984166136bd866131f7565b60005b828110156136e5578489015182556001820191506020850194506020810190506136c0565b8683101561370257848901516136fe601f89168261360b565b8355505b6001600288020188555050505b505050505050565b7f46756e6374696f6e206d7573742062652063616c6c6564207468726f7567682060008201527f64656c656761746563616c6c0000000000000000000000000000000000000000602082015250565b6000613773602c83612a2f565b915061377e82613717565b604082019050919050565b600060208201905081810360008301526137a281613766565b9050919050565b7f46756e6374696f6e206d7573742062652063616c6c6564207468726f7567682060008201527f6163746976652070726f78790000000000000000000000000000000000000000602082015250565b6000613805602c83612a2f565b9150613810826137a9565b604082019050919050565b60006020820190508181036000830152613834816137f8565b9050919050565b7f496e697469616c697a61626c653a20636f6e747261637420697320616c72656160008201527f647920696e697469616c697a6564000000000000000000000000000000000000602082015250565b6000613897602e83612a2f565b91506138a28261383b565b604082019050919050565b600060208201905081810360008301526138c68161388a565b9050919050565b6000815490506138dc816130ee565b9050919050565b8181036138f15750506139c9565b6138fa826138cd565b67ffffffffffffffff81111561391357613912612d0f565b5b61391d82546130ee565b6139288282856135b8565b6000601f8311600181146139575760008415613945578287015490505b61394f8582613629565b8655506139c2565b601f198416613965876131f7565b9650613970866131f7565b60005b8281101561399857848901548255600182019150600185019450602081019050613973565b868310156139b557848901546139b1601f89168261360b565b8355505b6001600288020188555050505b5050505050505b565b6000819050919050565b600060ff82169050919050565b60006139fd6139f86139f3846139cb565b61351d565b6139d5565b9050919050565b613a0d816139e2565b82525050565b6000602082019050613a286000830184613a04565b92915050565b7f555550535570677261646561626c653a206d757374206e6f742062652063616c60008201527f6c6564207468726f7567682064656c656761746563616c6c0000000000000000602082015250565b6000613a8a603883612a2f565b9150613a9582613a2e565b604082019050919050565b60006020820190508181036000830152613ab981613a7d565b9050919050565b7f4f776e61626c653a206e6577206f776e657220697320746865207a65726f206160008201527f6464726573730000000000000000000000000000000000000000000000000000602082015250565b6000613b1c602683612a2f565b9150613b2782613ac0565b604082019050919050565b60006020820190508181036000830152613b4b81613b0f565b9050919050565b7f4f776e61626c653a2063616c6c6572206973206e6f7420746865206f776e6572600082015250565b6000613b88602083612a2f565b9150613b9382613b52565b602082019050919050565b60006020820190508181036000830152613bb781613b7b565b9050919050565b613bc781612faf565b8114613bd257600080fd5b50565b600081519050613be481613bbe565b92915050565b600060208284031215613c0057613bff612ae0565b5b6000613c0e84828501613bd5565b91505092915050565b7f45524331393637557067726164653a206e657720696d706c656d656e7461746960008201527f6f6e206973206e6f742055555053000000000000000000000000000000000000602082015250565b6000613c73602e83612a2f565b9150613c7e82613c17565b604082019050919050565b60006020820190508181036000830152613ca281613c66565b9050919050565b7f45524331393637557067726164653a20756e737570706f727465642070726f7860008201527f6961626c65555549440000000000000000000000000000000000000000000000602082015250565b6000613d05602983612a2f565b9150613d1082613ca9565b604082019050919050565b60006020820190508181036000830152613d3481613cf8565b9050919050565b7f496e697469616c697a61626c653a20636f6e7472616374206973206e6f74206960008201527f6e697469616c697a696e67000000000000000000000000000000000000000000602082015250565b6000613d97602b83612a2f565b9150613da282613d3b565b604082019050919050565b60006020820190508181036000830152613dc681613d8a565b9050919050565b7f455243313936373a206e657720696d706c656d656e746174696f6e206973206e60008201527f6f74206120636f6e747261637400000000000000000000000000000000000000602082015250565b6000613e29602d83612a2f565b9150613e3482613dcd565b604082019050919050565b60006020820190508181036000830152613e5881613e1c565b9050919050565b7f416464726573733a2064656c65676174652063616c6c20746f206e6f6e2d636f60008201527f6e74726163740000000000000000000000000000000000000000000000000000602082015250565b6000613ebb602683612a2f565b9150613ec682613e5f565b604082019050919050565b60006020820190508181036000830152613eea81613eae565b9050919050565b600081519050919050565b600081905092915050565b6000613f1282613ef1565b613f1c8185613efc565b9350613f2c818560208601612a40565b80840191505092915050565b6000613f448284613f07565b91508190509291505056fe416464726573733a206c6f772d6c6576656c2064656c65676174652063616c6c206661696c6564a2646970667358221220cdde03069a26c44453e1efb1785d3d4c0bf097f79a31dadfa1907128cc535cec64736f6c63430008110033",
  "linkReferences": {},
  "deployedLinkReferences": {}
}