{
  "_format": "hh-sol-artifact-1",
  "contractName": "BettingPreFinal",
  "sourceName": "contracts/BettingPreFinal.sol",
  "abi": [
    {
      "inputs": [],
      "stateMutability": "nonpayable",
      "type": "constructor"
    },
    {
      "anonymous": false,
      "inputs": [
        {
          "indexed": false,
          "internalType": "address",
          "name": "previousAdmin",
          "type": "address"
        },
        {
          "indexed": false,
          "internalType": "address",
          "name": "newAdmin",
          "type": "address"
        }
      ],
      "name": "AdminChanged",
      "type": "event"
    },
    {
      "anonymous": false,
      "inputs": [
        {
          "indexed": true,
          "internalType": "address",
          "name": "beacon",
          "type": "address"
        }
      ],
      "name": "BeaconUpgraded",
      "type": "event"
    },
    {
      "anonymous": false,
      "inputs": [
        {
          "indexed": false,
          "internalType": "uint8",
          "name": "version",
          "type": "uint8"
        }
      ],
      "name": "Initialized",
      "type": "event"
    },
    {
      "anonymous": false,
      "inputs": [
        {
          "indexed": true,
          "internalType": "address",
          "name": "previousOwner",
          "type": "address"
        },
        {
          "indexed": true,
          "internalType": "address",
          "name": "newOwner",
          "type": "address"
        }
      ],
      "name": "OwnershipTransferred",
      "type": "event"
    },
    {
      "anonymous": false,
      "inputs": [
        {
          "indexed": true,
          "internalType": "address",
          "name": "implementation",
          "type": "address"
        }
      ],
      "name": "Upgraded",
      "type": "event"
    },
    {
      "inputs": [
        {
          "internalType": "bool",
          "name": "isApproved",
          "type": "bool"
        }
      ],
      "name": "approveWinner",
      "outputs": [],
      "stateMutability": "nonpayable",
      "type": "function"
    },
    {
      "inputs": [],
      "name": "blocktime",
      "outputs": [
        {
          "internalType": "uint256",
          "name": "",
          "type": "uint256"
        }
      ],
      "stateMutability": "view",
      "type": "function"
    },
    {
      "inputs": [],
      "name": "checkApproval",
      "outputs": [],
      "stateMutability": "nonpayable",
      "type": "function"
    },
    {
      "inputs": [
        {
          "internalType": "address payable",
          "name": "player",
          "type": "address"
        }
      ],
      "name": "checkPlayerExists",
      "outputs": [
        {
          "internalType": "bool",
          "name": "",
          "type": "bool"
        }
      ],
      "stateMutability": "view",
      "type": "function"
    },
    {
      "inputs": [],
      "name": "contractState",
      "outputs": [
        {
          "internalType": "string",
          "name": "",
          "type": "string"
        }
      ],
      "stateMutability": "view",
      "type": "function"
    },
    {
      "inputs": [
        {
          "internalType": "uint256",
          "name": "_winner",
          "type": "uint256"
        }
      ],
      "name": "endEventAndUpdateState",
      "outputs": [],
      "stateMutability": "nonpayable",
      "type": "function"
    },
    {
      "inputs": [],
      "name": "endTime",
      "outputs": [
        {
          "internalType": "uint256",
          "name": "",
          "type": "uint256"
        }
      ],
      "stateMutability": "view",
      "type": "function"
    },
    {
      "inputs": [
        {
          "internalType": "string",
          "name": "team1",
          "type": "string"
        },
        {
          "internalType": "string",
          "name": "team2",
          "type": "string"
        }
      ],
      "name": "initialize",
      "outputs": [],
      "stateMutability": "nonpayable",
      "type": "function"
    },
    {
      "inputs": [],
      "name": "matchObj",
      "outputs": [
        {
          "internalType": "uint256",
          "name": "teamOneId",
          "type": "uint256"
        },
        {
          "internalType": "uint256",
          "name": "teamTwoId",
          "type": "uint256"
        },
        {
          "internalType": "string",
          "name": "matchState",
          "type": "string"
        }
      ],
      "stateMutability": "view",
      "type": "function"
    },
    {
      "inputs": [],
      "name": "minimumBet",
      "outputs": [
        {
          "internalType": "uint256",
          "name": "",
          "type": "uint256"
        }
      ],
      "stateMutability": "view",
      "type": "function"
    },
    {
      "inputs": [],
      "name": "owner",
      "outputs": [
        {
          "internalType": "address",
          "name": "",
          "type": "address"
        }
      ],
      "stateMutability": "view",
      "type": "function"
    },
    {
      "inputs": [],
      "name": "ownerAddr",
      "outputs": [
        {
          "internalType": "address payable",
          "name": "",
          "type": "address"
        }
      ],
      "stateMutability": "view",
      "type": "function"
    },
    {
      "inputs": [
        {
          "internalType": "uint256",
          "name": "teamid",
          "type": "uint256"
        }
      ],
      "name": "placeBet",
      "outputs": [],
      "stateMutability": "payable",
      "type": "function"
    },
    {
      "inputs": [
        {
          "internalType": "uint256",
          "name": "",
          "type": "uint256"
        }
      ],
      "name": "playerArr",
      "outputs": [
        {
          "internalType": "uint256",
          "name": "amountBet",
          "type": "uint256"
        },
        {
          "internalType": "uint256",
          "name": "teamSelected",
          "type": "uint256"
        },
        {
          "internalType": "uint256",
          "name": "betPlaced",
          "type": "uint256"
        },
        {
          "internalType": "address",
          "name": "addr",
          "type": "address"
        },
        {
          "internalType": "uint256",
          "name": "id",
          "type": "uint256"
        }
      ],
      "stateMutability": "view",
      "type": "function"
    },
    {
      "inputs": [
        {
          "internalType": "address",
          "name": "",
          "type": "address"
        }
      ],
      "name": "playerInfo",
      "outputs": [
        {
          "internalType": "uint256",
          "name": "amountBet",
          "type": "uint256"
        },
        {
          "internalType": "uint256",
          "name": "teamSelected",
          "type": "uint256"
        },
        {
          "internalType": "uint256",
          "name": "betPlaced",
          "type": "uint256"
        },
        {
          "internalType": "address",
          "name": "addr",
          "type": "address"
        },
        {
          "internalType": "uint256",
          "name": "id",
          "type": "uint256"
        }
      ],
      "stateMutability": "view",
      "type": "function"
    },
    {
      "inputs": [],
      "name": "playerOneApproval",
      "outputs": [
        {
          "internalType": "bool",
          "name": "",
          "type": "bool"
        }
      ],
      "stateMutability": "view",
      "type": "function"
    },
    {
      "inputs": [],
      "name": "playerTwoApproval",
      "outputs": [
        {
          "internalType": "bool",
          "name": "",
          "type": "bool"
        }
      ],
      "stateMutability": "view",
      "type": "function"
    },
    {
      "inputs": [
        {
          "internalType": "uint256",
          "name": "",
          "type": "uint256"
        }
      ],
      "name": "players",
      "outputs": [
        {
          "internalType": "address payable",
          "name": "",
          "type": "address"
        }
      ],
      "stateMutability": "view",
      "type": "function"
    },
    {
      "inputs": [],
      "name": "proxiableUUID",
      "outputs": [
        {
          "internalType": "bytes32",
          "name": "",
          "type": "bytes32"
        }
      ],
      "stateMutability": "view",
      "type": "function"
    },
    {
      "inputs": [],
      "name": "renounceOwnership",
      "outputs": [],
      "stateMutability": "nonpayable",
      "type": "function"
    },
    {
      "inputs": [],
      "name": "startEventAndUpdateState",
      "outputs": [],
      "stateMutability": "nonpayable",
      "type": "function"
    },
    {
      "inputs": [],
      "name": "startTime",
      "outputs": [
        {
          "internalType": "uint256",
          "name": "",
          "type": "uint256"
        }
      ],
      "stateMutability": "view",
      "type": "function"
    },
    {
      "inputs": [
        {
          "internalType": "uint256",
          "name": "",
          "type": "uint256"
        }
      ],
      "name": "teamMap",
      "outputs": [
        {
          "internalType": "string",
          "name": "country",
          "type": "string"
        }
      ],
      "stateMutability": "view",
      "type": "function"
    },
    {
      "inputs": [],
      "name": "teamOneObj",
      "outputs": [
        {
          "internalType": "string",
          "name": "country",
          "type": "string"
        }
      ],
      "stateMutability": "view",
      "type": "function"
    },
    {
      "inputs": [],
      "name": "teamTwoObj",
      "outputs": [
        {
          "internalType": "string",
          "name": "country",
          "type": "string"
        }
      ],
      "stateMutability": "view",
      "type": "function"
    },
    {
      "inputs": [],
      "name": "terminateContract",
      "outputs": [],
      "stateMutability": "nonpayable",
      "type": "function"
    },
    {
      "inputs": [
        {
          "internalType": "address",
          "name": "newOwner",
          "type": "address"
        }
      ],
      "name": "transferOwnership",
      "outputs": [],
      "stateMutability": "nonpayable",
      "type": "function"
    },
    {
      "inputs": [
        {
          "internalType": "address",
          "name": "newImplementation",
          "type": "address"
        }
      ],
      "name": "upgradeTo",
      "outputs": [],
      "stateMutability": "nonpayable",
      "type": "function"
    },
    {
      "inputs": [
        {
          "internalType": "address",
          "name": "newImplementation",
          "type": "address"
        },
        {
          "internalType": "bytes",
          "name": "data",
          "type": "bytes"
        }
      ],
      "name": "upgradeToAndCall",
      "outputs": [],
      "stateMutability": "payable",
      "type": "function"
    },
    {
      "inputs": [],
      "name": "winner",
      "outputs": [
        {
          "internalType": "uint256",
          "name": "",
          "type": "uint256"
        }
      ],
      "stateMutability": "view",
      "type": "function"
    },
    {
      "inputs": [],
      "name": "winnerAddr",
      "outputs": [
        {
          "internalType": "address",
          "name": "",
          "type": "address"
        }
      ],
      "stateMutability": "view",
      "type": "function"
    }
  ],
  "bytecode": "0x60a06040523073ffffffffffffffffffffffffffffffffffffffff1660809073ffffffffffffffffffffffffffffffffffffffff168152503480156200004457600080fd5b50620000556200005b60201b60201c565b62000206565b600060019054906101000a900460ff1615620000ae576040517f08c379a0000000000000000000000000000000000000000000000000000000008152600401620000a590620001a9565b60405180910390fd5b60ff801660008054906101000a900460ff1660ff161015620001205760ff6000806101000a81548160ff021916908360ff1602179055507f7f26b83ff96e1f2b6a682f133852f6798a09c465da95921460cefb384740249860ff604051620001179190620001e9565b60405180910390a15b565b600082825260208201905092915050565b7f496e697469616c697a61626c653a20636f6e747261637420697320696e69746960008201527f616c697a696e6700000000000000000000000000000000000000000000000000602082015250565b60006200019160278362000122565b91506200019e8262000133565b604082019050919050565b60006020820190508181036000830152620001c48162000182565b9050919050565b600060ff82169050919050565b620001e381620001cb565b82525050565b6000602082019050620002006000830184620001d8565b92915050565b608051613ee56200023e600039600081816114f90152818161158701528181611a8401528181611b120152611bc20152613ee56000f3fe6080604052600436106101d85760003560e01c806378e9792511610102578063c38a8afd11610095578063e7b59e4611610064578063e7b59e461461062e578063f2fde38b1461066b578063f71d96cb14610694578063fb174ffb146106d1576101d8565b8063c38a8afd14610584578063ceb759f7146105af578063dfbf53ae146105da578063e3fbad2014610605576101d8565b80638da5cb5b116100d15780638da5cb5b146104ec5780639c675eaa14610517578063a0e11fbd14610542578063a9b12c4c14610559576101d8565b806378e979251461042c57806383fccff31461045757806385209ee0146104985780638a5a6d40146104c3576101d8565b80633659cfe61161017a5780634f1ef286116101495780634f1ef286146103a357806352d1902d146103bf57806366747331146103ea578063715018a614610415576101d8565b80633659cfe6146102d35780634081d916146102fc5780634b114691146103395780634cd88b761461037a576101d8565b80631d2e5191116101b65780631d2e51911461023b578063222b3ff5146102665780632fd949ca146102915780633197cbb6146102a8576101d8565b806302a304c5146101dd57806310fe7c481461020857806317d778a414610224575b600080fd5b3480156101e957600080fd5b506101f26106fe565b6040516101ff91906129ed565b60405180910390f35b610222600480360381019061021d9190612a59565b610792565b005b34801561023057600080fd5b50610239610d2d565b005b34801561024757600080fd5b50610250611469565b60405161025d9190612aa1565b60405180910390f35b34801561027257600080fd5b5061027b61147c565b6040516102889190612afd565b60405180910390f35b34801561029d57600080fd5b506102a66114a2565b005b3480156102b457600080fd5b506102bd6114f1565b6040516102ca9190612b27565b60405180910390f35b3480156102df57600080fd5b506102fa60048036038101906102f59190612b6e565b6114f7565b005b34801561030857600080fd5b50610323600480360381019061031e9190612bd9565b61167f565b6040516103309190612aa1565b60405180910390f35b34801561034557600080fd5b50610360600480360381019061035b9190612b6e565b61172d565b604051610371959493929190612c06565b60405180910390f35b34801561038657600080fd5b506103a1600480360381019061039c9190612d8e565b611783565b005b6103bd60048036038101906103b89190612ea7565b611a82565b005b3480156103cb57600080fd5b506103d4611bbe565b6040516103e19190612f1c565b60405180910390f35b3480156103f657600080fd5b506103ff611c77565b60405161040c9190612aa1565b60405180910390f35b34801561042157600080fd5b5061042a611c8a565b005b34801561043857600080fd5b50610441611c9e565b60405161044e9190612b27565b60405180910390f35b34801561046357600080fd5b5061047e60048036038101906104799190612a59565b611ca4565b60405161048f959493929190612c06565b60405180910390f35b3480156104a457600080fd5b506104ad611d0a565b6040516104ba91906129ed565b60405180910390f35b3480156104cf57600080fd5b506104ea60048036038101906104e59190612f63565b611d98565b005b3480156104f857600080fd5b50610501611ec1565b60405161050e9190612afd565b60405180910390f35b34801561052357600080fd5b5061052c611eeb565b6040516105399190612f9f565b60405180910390f35b34801561054e57600080fd5b50610557611f11565b005b34801561056557600080fd5b5061056e611f67565b60405161057b9190612b27565b60405180910390f35b34801561059057600080fd5b50610599611f6f565b6040516105a69190612b27565b60405180910390f35b3480156105bb57600080fd5b506105c4611f75565b6040516105d191906129ed565b60405180910390f35b3480156105e657600080fd5b506105ef612009565b6040516105fc9190612b27565b60405180910390f35b34801561061157600080fd5b5061062c60048036038101906106279190612a59565b61200f565b005b34801561063a57600080fd5b5061065560048036038101906106509190612a59565b61206d565b60405161066291906129ed565b60405180910390f35b34801561067757600080fd5b50610692600480360381019061068d9190612b6e565b612113565b005b3480156106a057600080fd5b506106bb60048036038101906106b69190612a59565b612196565b6040516106c89190612f9f565b60405180910390f35b3480156106dd57600080fd5b506106e66121d5565b6040516106f593929190612fba565b60405180910390f35b60cf80600001805461070f90613027565b80601f016020809104026020016040519081016040528092919081815260200182805461073b90613027565b80156107885780601f1061075d57610100808354040283529160200191610788565b820191906000526020600020905b81548152906001019060200180831161076b57829003601f168201915b5050505050905081565b61079b3361167f565b156107a557600080fd5b6040516020016107b4906130af565b6040516020818303038152906040528051906020012060d86040516020016107dc919061315c565b60405160208183030381529060405280519060200120036107fc57600080fd5b60405160200161080b906131bf565b6040516020818303038152906040528051906020012060d1600201604051602001610836919061315c565b604051602081830303815290604052805190602001200361085657600080fd5b60405160200161086590613220565b6040516020818303038152906040528051906020012060d860405160200161088d919061315c565b60405160208183030381529060405280519060200120036108ad57600080fd5b600060ca5403610ad4573460ca819055503460cc60003373ffffffffffffffffffffffffffffffffffffffff1673ffffffffffffffffffffffffffffffffffffffff168152602001908152602001600020600001819055508060cc60003373ffffffffffffffffffffffffffffffffffffffff1673ffffffffffffffffffffffffffffffffffffffff168152602001908152602001600020600101819055503360cc60003373ffffffffffffffffffffffffffffffffffffffff1673ffffffffffffffffffffffffffffffffffffffff16815260200190815260200160002060030160006101000a81548173ffffffffffffffffffffffffffffffffffffffff021916908373ffffffffffffffffffffffffffffffffffffffff160217905550600160cb805490506109df9190613264565b60cc60003373ffffffffffffffffffffffffffffffffffffffff1673ffffffffffffffffffffffffffffffffffffffff168152602001908152602001600020600401819055503460cc60003373ffffffffffffffffffffffffffffffffffffffff1673ffffffffffffffffffffffffffffffffffffffff1681526020019081526020016000206002018190555060cb339080600181540180825580915050600190039060005260206000200160009091909190916101000a81548173ffffffffffffffffffffffffffffffffffffffff021916908373ffffffffffffffffffffffffffffffffffffffff160217905550610d2a565b3460ca5414610b18576040517f08c379a0000000000000000000000000000000000000000000000000000000008152600401610b0f906132e4565b60405180910390fd5b3460cc60003373ffffffffffffffffffffffffffffffffffffffff1673ffffffffffffffffffffffffffffffffffffffff168152602001908152602001600020600001819055508060cc60003373ffffffffffffffffffffffffffffffffffffffff1673ffffffffffffffffffffffffffffffffffffffff168152602001908152602001600020600101819055503360cc60003373ffffffffffffffffffffffffffffffffffffffff1673ffffffffffffffffffffffffffffffffffffffff16815260200190815260200160002060030160006101000a81548173ffffffffffffffffffffffffffffffffffffffff021916908373ffffffffffffffffffffffffffffffffffffffff160217905550600160cb80549050610c399190613264565b60cc60003373ffffffffffffffffffffffffffffffffffffffff1673ffffffffffffffffffffffffffffffffffffffff168152602001908152602001600020600401819055503460cc60003373ffffffffffffffffffffffffffffffffffffffff1673ffffffffffffffffffffffffffffffffffffffff1681526020019081526020016000206002018190555060cb339080600181540180825580915050600190039060005260206000200160009091909190916101000a81548173ffffffffffffffffffffffffffffffffffffffff021916908373ffffffffffffffffffffffffffffffffffffffff1602179055505b50565b60c960009054906101000a900473ffffffffffffffffffffffffffffffffffffffff1673ffffffffffffffffffffffffffffffffffffffff163373ffffffffffffffffffffffffffffffffffffffff1614610dbd576040517f08c379a0000000000000000000000000000000000000000000000000000000008152600401610db490613350565b60405180910390fd5b604051602001610dcc90613220565b6040516020818303038152906040528051906020012060d8604051602001610df4919061315c565b6040516020818303038152906040528051906020012014610e1457600080fd5b60d760149054906101000a900460ff168015610e3c575060d760159054906101000a900460ff165b156112515760cc600060cb600181548110610e5a57610e59613370565b5b9060005260206000200160009054906101000a900473ffffffffffffffffffffffffffffffffffffffff1673ffffffffffffffffffffffffffffffffffffffff1673ffffffffffffffffffffffffffffffffffffffff1681526020019081526020016000206001015460cc600060cb600081548110610edc57610edb613370565b5b9060005260206000200160009054906101000a900473ffffffffffffffffffffffffffffffffffffffff1673ffffffffffffffffffffffffffffffffffffffff1673ffffffffffffffffffffffffffffffffffffffff16815260200190815260200160002060010154036110d75760005b60028110156110d157600060cb8281548110610f6c57610f6b613370565b5b9060005260206000200160009054906101000a900473ffffffffffffffffffffffffffffffffffffffff169050600060cc60008373ffffffffffffffffffffffffffffffffffffffff1673ffffffffffffffffffffffffffffffffffffffff1681526020019081526020016000206040518060a00160405290816000820154815260200160018201548152602001600282015481526020016003820160009054906101000a900473ffffffffffffffffffffffffffffffffffffffff1673ffffffffffffffffffffffffffffffffffffffff1673ffffffffffffffffffffffffffffffffffffffff168152602001600482015481525050905060008160400151905060008390508073ffffffffffffffffffffffffffffffffffffffff166108fc839081150290604051600060405180830381858888f193505050501580156110b9573d6000803e3d6000fd5b505050505080806110c99061339f565b915050610f4d565b50611207565b60005b60028110156112055760d65460cc600060cb84815481106110fe576110fd613370565b5b9060005260206000200160009054906101000a900473ffffffffffffffffffffffffffffffffffffffff1673ffffffffffffffffffffffffffffffffffffffff1673ffffffffffffffffffffffffffffffffffffffff16815260200190815260200160002060010154036111f25760cb81815481106111805761117f613370565b5b9060005260206000200160009054906101000a900473ffffffffffffffffffffffffffffffffffffffff1673ffffffffffffffffffffffffffffffffffffffff166108fc479081150290604051600060405180830381858888f193505050501580156111f0573d6000803e3d6000fd5b505b80806111fd9061339f565b9150506110da565b505b6040518060400160405280600781526020017f534554544c45440000000000000000000000000000000000000000000000000081525060d8908161124b919061357e565b5061141f565b60005b60028110156113d857600060cb828154811061127357611272613370565b5b9060005260206000200160009054906101000a900473ffffffffffffffffffffffffffffffffffffffff169050600060cc60008373ffffffffffffffffffffffffffffffffffffffff1673ffffffffffffffffffffffffffffffffffffffff1681526020019081526020016000206040518060a00160405290816000820154815260200160018201548152602001600282015481526020016003820160009054906101000a900473ffffffffffffffffffffffffffffffffffffffff1673ffffffffffffffffffffffffffffffffffffffff1673ffffffffffffffffffffffffffffffffffffffff168152602001600482015481525050905060008160400151905060008390508073ffffffffffffffffffffffffffffffffffffffff166108fc839081150290604051600060405180830381858888f193505050501580156113c0573d6000803e3d6000fd5b505050505080806113d09061339f565b915050611254565b506040518060400160405280600a81526020017f5445524d494e415445440000000000000000000000000000000000000000000081525060d8908161141d919061357e565b505b6040518060400160405280600581526020017f454e44454400000000000000000000000000000000000000000000000000000081525060d16002019081611466919061357e565b50565b60d760159054906101000a900460ff1681565b60d760009054906101000a900473ffffffffffffffffffffffffffffffffffffffff1681565b6114aa612275565b6040518060400160405280600a81526020017f5445524d494e415445440000000000000000000000000000000000000000000081525060d890816114ee919061357e565b50565b60d55481565b7f000000000000000000000000000000000000000000000000000000000000000073ffffffffffffffffffffffffffffffffffffffff163073ffffffffffffffffffffffffffffffffffffffff1603611585576040517f08c379a000000000000000000000000000000000000000000000000000000000815260040161157c906136c2565b60405180910390fd5b7f000000000000000000000000000000000000000000000000000000000000000073ffffffffffffffffffffffffffffffffffffffff166115c46122f3565b73ffffffffffffffffffffffffffffffffffffffff161461161a576040517f08c379a000000000000000000000000000000000000000000000000000000000815260040161161190613754565b60405180910390fd5b6116238161234a565b61167c81600067ffffffffffffffff81111561164257611641612c63565b5b6040519080825280601f01601f1916602001820160405280156116745781602001600182028036833780820191505090505b506000612355565b50565b600080600090505b60cb80549050811015611722578273ffffffffffffffffffffffffffffffffffffffff1660cb82815481106116bf576116be613370565b5b9060005260206000200160009054906101000a900473ffffffffffffffffffffffffffffffffffffffff1673ffffffffffffffffffffffffffffffffffffffff160361170f576001915050611728565b808061171a9061339f565b915050611687565b50600090505b919050565b60cc6020528060005260406000206000915090508060000154908060010154908060020154908060030160009054906101000a900473ffffffffffffffffffffffffffffffffffffffff16908060040154905085565b60008060019054906101000a900460ff161590508080156117b45750600160008054906101000a900460ff1660ff16105b806117e157506117c3306124c3565b1580156117e05750600160008054906101000a900460ff1660ff16145b5b611820576040517f08c379a0000000000000000000000000000000000000000000000000000000008152600401611817906137e6565b60405180910390fd5b60016000806101000a81548160ff021916908360ff160217905550801561185d576001600060016101000a81548160ff0219169083151502179055505b6118656124e6565b61186d61253f565b3360c960006101000a81548173ffffffffffffffffffffffffffffffffffffffff021916908373ffffffffffffffffffffffffffffffffffffffff1602179055506040518060400160405280600581526020017f445241465400000000000000000000000000000000000000000000000000000081525060d890816118f2919061357e565b5060405180602001604052808481525060ce6000820151816000019081611919919061357e565b5090505060ce60d060006001815260200190815260200160002060008201816000019081611947919061381c565b5090505060405180602001604052808381525060cf6000820151816000019081611971919061357e565b5090505060cf60d06000600281526020019081526020016000206000820181600001908161199f919061381c565b50905050604051806060016040528060018152602001600281526020016040518060400160405280600981526020017f5343484544554c4544000000000000000000000000000000000000000000000081525081525060d160008201518160000155602082015181600101556040820151816002019081611a20919061357e565b509050508015611a7d5760008060016101000a81548160ff0219169083151502179055507f7f26b83ff96e1f2b6a682f133852f6798a09c465da95921460cefb38474024986001604051611a74919061394c565b60405180910390a15b505050565b7f000000000000000000000000000000000000000000000000000000000000000073ffffffffffffffffffffffffffffffffffffffff163073ffffffffffffffffffffffffffffffffffffffff1603611b10576040517f08c379a0000000000000000000000000000000000000000000000000000000008152600401611b07906136c2565b60405180910390fd5b7f000000000000000000000000000000000000000000000000000000000000000073ffffffffffffffffffffffffffffffffffffffff16611b4f6122f3565b73ffffffffffffffffffffffffffffffffffffffff1614611ba5576040517f08c379a0000000000000000000000000000000000000000000000000000000008152600401611b9c90613754565b60405180910390fd5b611bae8261234a565b611bba82826001612355565b5050565b60007f000000000000000000000000000000000000000000000000000000000000000073ffffffffffffffffffffffffffffffffffffffff163073ffffffffffffffffffffffffffffffffffffffff1614611c4e576040517f08c379a0000000000000000000000000000000000000000000000000000000008152600401611c45906139d9565b60405180910390fd5b7f360894a13ba1a3210667c828492db98dca3e2076cc3735a920a3ca505d382bbc60001b905090565b60d760149054906101000a900460ff1681565b611c92612275565b611c9c6000612590565b565b60d45481565b60cd8181548110611cb457600080fd5b90600052602060002090600502016000915090508060000154908060010154908060020154908060030160009054906101000a900473ffffffffffffffffffffffffffffffffffffffff16908060040154905085565b60d88054611d1790613027565b80601f0160208091040260200160405190810160405280929190818152602001828054611d4390613027565b8015611d905780601f10611d6557610100808354040283529160200191611d90565b820191906000526020600020905b815481529060010190602001808311611d7357829003601f168201915b505050505081565b604051602001611da790613220565b6040516020818303038152906040528051906020012060d8604051602001611dcf919061315c565b6040516020818303038152906040528051906020012014611def57600080fd5b600160cc60003373ffffffffffffffffffffffffffffffffffffffff1673ffffffffffffffffffffffffffffffffffffffff1681526020019081526020016000206004015403611e58578060d760146101000a81548160ff021916908315150217905550611ebe565b600260cc60003373ffffffffffffffffffffffffffffffffffffffff1673ffffffffffffffffffffffffffffffffffffffff1681526020019081526020016000206004015403611ebd578060d760156101000a81548160ff0219169083151502179055505b5b50565b6000603360009054906101000a900473ffffffffffffffffffffffffffffffffffffffff16905090565b60c960009054906101000a900473ffffffffffffffffffffffffffffffffffffffff1681565b611f19612275565b6040518060400160405280600981526020017f454646454354495645000000000000000000000000000000000000000000000081525060d89081611f5d919061357e565b504260d481905550565b600042905090565b60ca5481565b60ce806000018054611f8690613027565b80601f0160208091040260200160405190810160405280929190818152602001828054611fb290613027565b8015611fff5780601f10611fd457610100808354040283529160200191611fff565b820191906000526020600020905b815481529060010190602001808311611fe257829003601f168201915b5050505050905081565b60d65481565b612017612275565b6040518060400160405280600781526020017f4d4154555245440000000000000000000000000000000000000000000000000081525060d8908161205b919061357e565b504260d5819055508060d68190555050565b60d060205280600052604060002060009150905080600001805461209090613027565b80601f01602080910402602001604051908101604052809291908181526020018280546120bc90613027565b80156121095780601f106120de57610100808354040283529160200191612109565b820191906000526020600020905b8154815290600101906020018083116120ec57829003601f168201915b5050505050905081565b61211b612275565b600073ffffffffffffffffffffffffffffffffffffffff168173ffffffffffffffffffffffffffffffffffffffff160361218a576040517f08c379a000000000000000000000000000000000000000000000000000000000815260040161218190613a6b565b60405180910390fd5b61219381612590565b50565b60cb81815481106121a657600080fd5b906000526020600020016000915054906101000a900473ffffffffffffffffffffffffffffffffffffffff1681565b60d18060000154908060010154908060020180546121f290613027565b80601f016020809104026020016040519081016040528092919081815260200182805461221e90613027565b801561226b5780601f106122405761010080835404028352916020019161226b565b820191906000526020600020905b81548152906001019060200180831161224e57829003601f168201915b5050505050905083565b61227d612656565b73ffffffffffffffffffffffffffffffffffffffff1661229b611ec1565b73ffffffffffffffffffffffffffffffffffffffff16146122f1576040517f08c379a00000000000000000000000000000000000000000000000000000000081526004016122e890613ad7565b60405180910390fd5b565b60006123217f360894a13ba1a3210667c828492db98dca3e2076cc3735a920a3ca505d382bbc60001b61265e565b60000160009054906101000a900473ffffffffffffffffffffffffffffffffffffffff16905090565b612352612275565b50565b6123817f4910fdfa16fed3260ed0e7147f7cc6da11a60208b5b9406d12a635614ffd914360001b612668565b60000160009054906101000a900460ff16156123a5576123a083612672565b6124be565b8273ffffffffffffffffffffffffffffffffffffffff166352d1902d6040518163ffffffff1660e01b8152600401602060405180830381865afa92505050801561240d57506040513d601f19601f8201168201806040525081019061240a9190613b23565b60015b61244c576040517f08c379a000000000000000000000000000000000000000000000000000000000815260040161244390613bc2565b60405180910390fd5b7f360894a13ba1a3210667c828492db98dca3e2076cc3735a920a3ca505d382bbc60001b81146124b1576040517f08c379a00000000000000000000000000000000000000000000000000000000081526004016124a890613c54565b60405180910390fd5b506124bd83838361272b565b5b505050565b6000808273ffffffffffffffffffffffffffffffffffffffff163b119050919050565b600060019054906101000a900460ff16612535576040517f08c379a000000000000000000000000000000000000000000000000000000000815260040161252c90613ce6565b60405180910390fd5b61253d612757565b565b600060019054906101000a900460ff1661258e576040517f08c379a000000000000000000000000000000000000000000000000000000000815260040161258590613ce6565b60405180910390fd5b565b6000603360009054906101000a900473ffffffffffffffffffffffffffffffffffffffff16905081603360006101000a81548173ffffffffffffffffffffffffffffffffffffffff021916908373ffffffffffffffffffffffffffffffffffffffff1602179055508173ffffffffffffffffffffffffffffffffffffffff168173ffffffffffffffffffffffffffffffffffffffff167f8be0079c531659141344cd1fd0a4f28419497f9722a3daafe3b4186f6b6457e060405160405180910390a35050565b600033905090565b6000819050919050565b6000819050919050565b61267b816124c3565b6126ba576040517f08c379a00000000000000000000000000000000000000000000000000000000081526004016126b190613d78565b60405180910390fd5b806126e77f360894a13ba1a3210667c828492db98dca3e2076cc3735a920a3ca505d382bbc60001b61265e565b60000160006101000a81548173ffffffffffffffffffffffffffffffffffffffff021916908373ffffffffffffffffffffffffffffffffffffffff16021790555050565b612734836127b8565b6000825111806127415750805b15612752576127508383612807565b505b505050565b600060019054906101000a900460ff166127a6576040517f08c379a000000000000000000000000000000000000000000000000000000000815260040161279d90613ce6565b60405180910390fd5b6127b66127b1612656565b612590565b565b6127c181612672565b8073ffffffffffffffffffffffffffffffffffffffff167fbc7cd75a20ee27fd9adebab32041f755214dbc6bffa90cc0225b39da2e5c2d3b60405160405180910390a250565b6060612812836124c3565b612851576040517f08c379a000000000000000000000000000000000000000000000000000000000815260040161284890613e0a565b60405180910390fd5b6000808473ffffffffffffffffffffffffffffffffffffffff16846040516128799190613e71565b600060405180830381855af49150503d80600081146128b4576040519150601f19603f3d011682016040523d82523d6000602084013e6128b9565b606091505b50915091506128e18282604051806060016040528060278152602001613e89602791396128eb565b9250505092915050565b606083156128fb57829050612906565b612905838361290d565b5b9392505050565b6000825111156129205781518083602001fd5b806040517f08c379a000000000000000000000000000000000000000000000000000000000815260040161295491906129ed565b60405180910390fd5b600081519050919050565b600082825260208201905092915050565b60005b8381101561299757808201518184015260208101905061297c565b60008484015250505050565b6000601f19601f8301169050919050565b60006129bf8261295d565b6129c98185612968565b93506129d9818560208601612979565b6129e2816129a3565b840191505092915050565b60006020820190508181036000830152612a0781846129b4565b905092915050565b6000604051905090565b600080fd5b600080fd5b6000819050919050565b612a3681612a23565b8114612a4157600080fd5b50565b600081359050612a5381612a2d565b92915050565b600060208284031215612a6f57612a6e612a19565b5b6000612a7d84828501612a44565b91505092915050565b60008115159050919050565b612a9b81612a86565b82525050565b6000602082019050612ab66000830184612a92565b92915050565b600073ffffffffffffffffffffffffffffffffffffffff82169050919050565b6000612ae782612abc565b9050919050565b612af781612adc565b82525050565b6000602082019050612b126000830184612aee565b92915050565b612b2181612a23565b82525050565b6000602082019050612b3c6000830184612b18565b92915050565b612b4b81612adc565b8114612b5657600080fd5b50565b600081359050612b6881612b42565b92915050565b600060208284031215612b8457612b83612a19565b5b6000612b9284828501612b59565b91505092915050565b6000612ba682612abc565b9050919050565b612bb681612b9b565b8114612bc157600080fd5b50565b600081359050612bd381612bad565b92915050565b600060208284031215612bef57612bee612a19565b5b6000612bfd84828501612bc4565b91505092915050565b600060a082019050612c1b6000830188612b18565b612c286020830187612b18565b612c356040830186612b18565b612c426060830185612aee565b612c4f6080830184612b18565b9695505050505050565b600080fd5b600080fd5b7f4e487b7100000000000000000000000000000000000000000000000000000000600052604160045260246000fd5b612c9b826129a3565b810181811067ffffffffffffffff82111715612cba57612cb9612c63565b5b80604052505050565b6000612ccd612a0f565b9050612cd98282612c92565b919050565b600067ffffffffffffffff821115612cf957612cf8612c63565b5b612d02826129a3565b9050602081019050919050565b82818337600083830152505050565b6000612d31612d2c84612cde565b612cc3565b905082815260208101848484011115612d4d57612d4c612c5e565b5b612d58848285612d0f565b509392505050565b600082601f830112612d7557612d74612c59565b5b8135612d85848260208601612d1e565b91505092915050565b60008060408385031215612da557612da4612a19565b5b600083013567ffffffffffffffff811115612dc357612dc2612a1e565b5b612dcf85828601612d60565b925050602083013567ffffffffffffffff811115612df057612def612a1e565b5b612dfc85828601612d60565b9150509250929050565b600067ffffffffffffffff821115612e2157612e20612c63565b5b612e2a826129a3565b9050602081019050919050565b6000612e4a612e4584612e06565b612cc3565b905082815260208101848484011115612e6657612e65612c5e565b5b612e71848285612d0f565b509392505050565b600082601f830112612e8e57612e8d612c59565b5b8135612e9e848260208601612e37565b91505092915050565b60008060408385031215612ebe57612ebd612a19565b5b6000612ecc85828601612b59565b925050602083013567ffffffffffffffff811115612eed57612eec612a1e565b5b612ef985828601612e79565b9150509250929050565b6000819050919050565b612f1681612f03565b82525050565b6000602082019050612f316000830184612f0d565b92915050565b612f4081612a86565b8114612f4b57600080fd5b50565b600081359050612f5d81612f37565b92915050565b600060208284031215612f7957612f78612a19565b5b6000612f8784828501612f4e565b91505092915050565b612f9981612b9b565b82525050565b6000602082019050612fb46000830184612f90565b92915050565b6000606082019050612fcf6000830186612b18565b612fdc6020830185612b18565b8181036040830152612fee81846129b4565b9050949350505050565b7f4e487b7100000000000000000000000000000000000000000000000000000000600052602260045260246000fd5b6000600282049050600182168061303f57607f821691505b60208210810361305257613051612ff8565b5b50919050565b600081905092915050565b7f5445524d494e4154454400000000000000000000000000000000000000000000600082015250565b6000613099600a83613058565b91506130a482613063565b600a82019050919050565b60006130ba8261308c565b9150819050919050565b60008190508160005260206000209050919050565b600081546130e681613027565b6130f08186613058565b9450600182166000811461310b576001811461312057613153565b60ff1983168652811515820286019350613153565b613129856130c4565b60005b8381101561314b5781548189015260018201915060208101905061312c565b838801955050505b50505092915050565b600061316882846130d9565b915081905092915050565b7f454e444544000000000000000000000000000000000000000000000000000000600082015250565b60006131a9600583613058565b91506131b482613173565b600582019050919050565b60006131ca8261319c565b9150819050919050565b7f4d41545552454400000000000000000000000000000000000000000000000000600082015250565b600061320a600783613058565b9150613215826131d4565b600782019050919050565b600061322b826131fd565b9150819050919050565b7f4e487b7100000000000000000000000000000000000000000000000000000000600052601160045260246000fd5b600061326f82612a23565b915061327a83612a23565b925082820190508082111561329257613291613235565b5b92915050565b7f42657420616d6f756e742073686f756c642062652073616d6500000000000000600082015250565b60006132ce601983612968565b91506132d982613298565b602082019050919050565b600060208201905081810360008301526132fd816132c1565b9050919050565b7f6d75737420626520616e206f776e657200000000000000000000000000000000600082015250565b600061333a601083612968565b915061334582613304565b602082019050919050565b600060208201905081810360008301526133698161332d565b9050919050565b7f4e487b7100000000000000000000000000000000000000000000000000000000600052603260045260246000fd5b60006133aa82612a23565b91507fffffffffffffffffffffffffffffffffffffffffffffffffffffffffffffffff82036133dc576133db613235565b5b600182019050919050565b60006020601f8301049050919050565b600082821b905092915050565b6000600883026134347fffffffffffffffffffffffffffffffffffffffffffffffffffffffffffffffff826133f7565b61343e86836133f7565b95508019841693508086168417925050509392505050565b6000819050919050565b600061347b61347661347184612a23565b613456565b612a23565b9050919050565b6000819050919050565b61349583613460565b6134a96134a182613482565b848454613404565b825550505050565b600090565b6134be6134b1565b6134c981848461348c565b505050565b5b818110156134ed576134e26000826134b6565b6001810190506134cf565b5050565b601f82111561353257613503816130c4565b61350c846133e7565b8101602085101561351b578190505b61352f613527856133e7565b8301826134ce565b50505b505050565b600082821c905092915050565b600061355560001984600802613537565b1980831691505092915050565b600061356e8383613544565b9150826002028217905092915050565b6135878261295d565b67ffffffffffffffff8111156135a05761359f612c63565b5b6135aa8254613027565b6135b58282856134f1565b600060209050601f8311600181146135e857600084156135d6578287015190505b6135e08582613562565b865550613648565b601f1984166135f6866130c4565b60005b8281101561361e578489015182556001820191506020850194506020810190506135f9565b8683101561363b5784890151613637601f891682613544565b8355505b6001600288020188555050505b505050505050565b7f46756e6374696f6e206d7573742062652063616c6c6564207468726f7567682060008201527f64656c656761746563616c6c0000000000000000000000000000000000000000602082015250565b60006136ac602c83612968565b91506136b782613650565b604082019050919050565b600060208201905081810360008301526136db8161369f565b9050919050565b7f46756e6374696f6e206d7573742062652063616c6c6564207468726f7567682060008201527f6163746976652070726f78790000000000000000000000000000000000000000602082015250565b600061373e602c83612968565b9150613749826136e2565b604082019050919050565b6000602082019050818103600083015261376d81613731565b9050919050565b7f496e697469616c697a61626c653a20636f6e747261637420697320616c72656160008201527f647920696e697469616c697a6564000000000000000000000000000000000000602082015250565b60006137d0602e83612968565b91506137db82613774565b604082019050919050565b600060208201905081810360008301526137ff816137c3565b9050919050565b60008154905061381581613027565b9050919050565b81810361382a575050613902565b61383382613806565b67ffffffffffffffff81111561384c5761384b612c63565b5b6138568254613027565b6138618282856134f1565b6000601f831160018114613890576000841561387e578287015490505b6138888582613562565b8655506138fb565b601f19841661389e876130c4565b96506138a9866130c4565b60005b828110156138d1578489015482556001820191506001850194506020810190506138ac565b868310156138ee57848901546138ea601f891682613544565b8355505b6001600288020188555050505b5050505050505b565b6000819050919050565b600060ff82169050919050565b600061393661393161392c84613904565b613456565b61390e565b9050919050565b6139468161391b565b82525050565b6000602082019050613961600083018461393d565b92915050565b7f555550535570677261646561626c653a206d757374206e6f742062652063616c60008201527f6c6564207468726f7567682064656c656761746563616c6c0000000000000000602082015250565b60006139c3603883612968565b91506139ce82613967565b604082019050919050565b600060208201905081810360008301526139f2816139b6565b9050919050565b7f4f776e61626c653a206e6577206f776e657220697320746865207a65726f206160008201527f6464726573730000000000000000000000000000000000000000000000000000602082015250565b6000613a55602683612968565b9150613a60826139f9565b604082019050919050565b60006020820190508181036000830152613a8481613a48565b9050919050565b7f4f776e61626c653a2063616c6c6572206973206e6f7420746865206f776e6572600082015250565b6000613ac1602083612968565b9150613acc82613a8b565b602082019050919050565b60006020820190508181036000830152613af081613ab4565b9050919050565b613b0081612f03565b8114613b0b57600080fd5b50565b600081519050613b1d81613af7565b92915050565b600060208284031215613b3957613b38612a19565b5b6000613b4784828501613b0e565b91505092915050565b7f45524331393637557067726164653a206e657720696d706c656d656e7461746960008201527f6f6e206973206e6f742055555053000000000000000000000000000000000000602082015250565b6000613bac602e83612968565b9150613bb782613b50565b604082019050919050565b60006020820190508181036000830152613bdb81613b9f565b9050919050565b7f45524331393637557067726164653a20756e737570706f727465642070726f7860008201527f6961626c65555549440000000000000000000000000000000000000000000000602082015250565b6000613c3e602983612968565b9150613c4982613be2565b604082019050919050565b60006020820190508181036000830152613c6d81613c31565b9050919050565b7f496e697469616c697a61626c653a20636f6e7472616374206973206e6f74206960008201527f6e697469616c697a696e67000000000000000000000000000000000000000000602082015250565b6000613cd0602b83612968565b9150613cdb82613c74565b604082019050919050565b60006020820190508181036000830152613cff81613cc3565b9050919050565b7f455243313936373a206e657720696d706c656d656e746174696f6e206973206e60008201527f6f74206120636f6e747261637400000000000000000000000000000000000000602082015250565b6000613d62602d83612968565b9150613d6d82613d06565b604082019050919050565b60006020820190508181036000830152613d9181613d55565b9050919050565b7f416464726573733a2064656c65676174652063616c6c20746f206e6f6e2d636f60008201527f6e74726163740000000000000000000000000000000000000000000000000000602082015250565b6000613df4602683612968565b9150613dff82613d98565b604082019050919050565b60006020820190508181036000830152613e2381613de7565b9050919050565b600081519050919050565b600081905092915050565b6000613e4b82613e2a565b613e558185613e35565b9350613e65818560208601612979565b80840191505092915050565b6000613e7d8284613e40565b91508190509291505056fe416464726573733a206c6f772d6c6576656c2064656c65676174652063616c6c206661696c6564a2646970667358221220c0b364e1589e906859726e4b20fa9db3fd2fd9fd508fc31a6e2ea7a595f9c81264736f6c63430008110033",
  "linkReferences": {},
  "deployedLinkReferences": {}
}